:100000000C9464020C94A8020C94A8020C94A8020C
:100010000C94A8020C94A8020C94A8020C94A802B8
:100020000C94A8020C94A8020C94A3260C94752797
:100030000C944D160C94A8020C94A8020C94A802DF
:100040000C94A8020C94A8020C94A8020C94A80288
:100050000C94A8020C94B4160C94A8020C94A80258
:100060000C94A8020C94A8020C94A8020C94A80268
:100070000C94A8020C94A8020C94A8020C94A80258
:100080000C94A8020C94A8020C94A8020C94A80248
:100090000C94A8020C94A8020C94A8020C94A80238
:1000A0000C94A8020C94A8020C94A80249034F03D4
:1000B000530356035A035E03620366036B036F0325
:1000C000730377037A037E03820386038A038F0315
:1000D0002C093E094A09760964097009C4093209E4
:1000E0005E09C409C409C40980098B09060D060DFF
:1000F000390D390D790D9B0DEA0EEA0EA60DEA0EAB
:100100004D0E4D0EB70EBF0EEA0EE50E5A0E5A0EEC
:100110005A0E5A0E5A0E5A0E5A0E5A0E5A0E5A0E9F
:100120005A0E5A0E5A0E5A0E5A0E5A0E6A0E7A0E5F
:10013000810E880E920E6A0F6A0F7D0F7D0F730F6E
:100140007D0F7D0F7D0F6A0F6A0F790F7D0F7D0F79
:10015000790FDA27FC27E728FC27E7283E286128C3
:10016000E728B628C9282B0014001A00080015003B
:1001700017001C0018000C00120013002A002900B0
:1001800004001600070009000A000B000D000E0015
:100190000F00330034003C701D001B0006001900E6
:1001A0000500110010003600370038003D70035183
:1001B000E000E300E20044702C002C004570500089
:1001C00051005200280048003A003B003C003D002E
:1001D0002202230224022502260227024C000100EB
:1001E0003E003F00400041004A0000002D002E006C
:1001F0002F0230023100010042004300440045005C
:100200004D0000002D022E022F00300001000100E1
:100210000100010001000100010001000100AA002D
:10022000A900AA004F0035001E001F002000210079
:100230002200230024002500260027004C054C0046
:100240003A003B003C003D003E003F002D002E00E8
:100250002F00300031000100400041004200430007
:10026000440045002D02640001000100010001006E
:100270000100010001000100010001000100AA00CD
:10028000AA00A9004F00007019701A703C003D00D0
:1002900000000000490000002400250026000000A6
:1002A0003E003F00400041000000000051005200AD
:1002B00021002200230001004200430044004500C9
:1002C0002D012D0350004F001E001F0020000100D3
:1002D000E000E300E20000002800280049000000E0
:1002E000270037003800280354006800650020000C
:1002F00050006C0061006E0063006B0020004B003A
:100300006500790062006F00610072006400000007
:100310002C034F007200740068006F006C006900CD
:100320006E0065006100720020004B0065007900DE
:1003300062006F006100720064007300000004033B
:1003400009040902B000050100A0FA090400000137
:10035000030101000921110100012240000705816C
:100360000308000A09040100010301020009211128
:10037000010001224D000705820308000A0904025A
:1003800000010300000009211101000122360007CD
:1003900005830308000A09040300000101000009A5
:1003A0002401000109000104090404000201030002
:1003B0000007240100014100062402010100062477
:1003C00002020200092403010301020100092403BF
:1003D00002040101010009050502400005000005B5
:1003E00025010101090584024000050000052501E1
:1003F00001031201100100000008EDFE606004001E
:100400000102000105010980A10185021681002673
:10041000B7001A81002AB700751095018100C00548
:100420000C0901A1018503160100269C021A010096
:100430002A9C02751095018100C005010902A101E5
:100440000901A100050919012905150025019505D6
:10045000750181029501750381010501093009319A
:100460001581257F95027508810609381581257F3C
:10047000950175088106050C0A38021581257F95BE
:100480000175088106C0C005010906A1010507190B
:10049000E029E71500250195087501810295017590
:1004A0000881010508190129059505750191029535
:1004B00001750391010507190029FF150026FF00AA
:1004C000950675088100C00011241FBECFEFDAE049
:1004D000DEBFCDBF04B603FE24C080912C039091F3
:1004E0002D03A0912E03B0912F038730904BA7408E
:1004F000B04BB9F410922C0310922D0310922E03DE
:1005000010922F0314BE84B7877F84BF88E10FB693
:10051000F89480936000109260000FBEE0E0F8E372
:10052000099511E0A0E0B1E0EAEAF7E502C0059024
:100530000D92A636B107D9F713E0A6E6B1E001C0E7
:100540001D92AC32B107E1F70E9480230C94D32BAB
:100550000C9400006E9A769A0C943A07CF93DF932E
:10056000EC010E94EB15BE0180E090E0DF91CF919D
:100570000C945213CF93FB01843420E7920779F057
:10058000853420E7920771F08034904701F5C281ED
:10059000CC23F1F081E090E00E94AE020EC0C28157
:1005A00081E002C0C28182E0CC2349F00E94C913DD
:1005B00043E062E081E00E942004C0E009C00E94A4
:1005C000EA1343E062E081E00E94200401C0C1E040
:1005D0008C2FCF91089581E008950C94BA020E9467
:1005E000580F2FEF84E39CE0215080409040E1F7CA
:1005F00000C000000C94D9160F931F93CF93DF9384
:100600008C01FC01C081D181CE010E947F14BE010A
:100610000E945F06EC01B8010E94ED02882309F4F4
:1006200009C1B801CE010E94D209882309F402C190
:10063000B801CE010E94EE06882309F4FBC0C53143
:10064000F0E7DF0708F0A3C0C23080E7D80708F45E
:1006500078C0F8018281882309F47FC00E94D815F0
:10066000811102C00E94B9150E94F01590E090938C
:10067000190380931803FE01E350F047E231F105BE
:1006800020F4EA5AFF4F0C94672A80911803816086
:1006900003C0809118038260809318034BC080913F
:1006A00018038460F9CF8091180313C08091180358
:1006B0008061F2CF809118038062EECF80911803A1
:1006C0008064EACF809118038068E6CF8091180398
:1006D00084608860E1CF809118038E7FDDCF8091A8
:1006E00018038D7FD9CF809118038B7FD5CF809150
:1006F000180313C0809118038F7ECECF809118030A
:100700008F7DCACF809118038F7BC6CF809118034D
:100710008F77C2CF809118038B7F877FBDCF909159
:10072000180397FB882780F921E0822780FB97F93F
:1007300090931803809118030E94F4150E94580F9B
:1007400079C0C115E0E7DE0779F0C130D047A1F0EC
:1007500081E08093680180936901C801DF91CF91A6
:100760001F910F910C94EB02F8018281882309F408
:1007700061C00E94EF025EC0F8018281882309F403
:1007800059C08091F00181608093F00153C0CC3357
:1007900080E7D80719F5F8018281882351F010927B
:1007A00068010E947F16909367018093660182E042
:1007B00026C08091680181110FC0809166019091DF
:1007C00067010E948B16883C910530F486E20E94F6
:1007D000990B86E20E946C0C82E019C0CD33D047A1
:1007E00009F0B6CFF8018281882361F01092690187
:1007F0000E947F16909367018093660180E20E94B9
:10080000BB0C18C080916901882321F080E20E940E
:10081000C20C10C080916601909167010E948B16F6
:10082000883C910598F787E20E94990B87E20E9425
:100830006C0CECCF80E0DF91CF911F910F91089568
:10084000CF92DF92EF92FF920F931F9301E010E09F
:1008500020E030E06801790104C0CC0CDD1CEE1C06
:10086000FF1C8A95D2F7D701C60104C0000F111FE3
:10087000221F331F6A95D2F7802B912BA22BB32B0B
:100880000091DB011091DC012091DD013091DE014E
:10089000082319232A233B23081719072A073B0794
:1008A00049F4842F1F910F91FF90EF90DF90CF902C
:1008B0000C94C913842F1F910F91FF90EF90DF903C
:1008C000CF900C94EA130C943C07279A2F988FEF43
:1008D0009FEF90938700809386008AE0809380004A
:1008E00089E1809381000C94461B0E9465040C945E
:1008F000AA022F9881110AC080918000877F80937F
:10090000800010928D0010928C000895833041F485
:10091000809180008860809380008FEF9FEF12C0ED
:100920009091800098609093800023E030E0281B35
:100930003109220F331F8FEF9FEF02C096958795E5
:100940002A95E2F790938D0080938C000895089586
:100950000C94A7040C94A8042CE0729FF0011124BD
:1009600030E3839FE00DF11D1124E60FF11DEE0F22
:10097000FF1FEA59FE4F859194910E9471068115DF
:1009800040E5940708F047C0811520E4920708F07D
:100990001BC1883E910520F5803E910508F08AC173
:1009A000883A910578F4853A910508F0A5C0813020
:1009B000910509F47FC108F436C18430910508F02F
:1009C00079C131C18D3B910508F4A1C0803C9105EE
:1009D00008F429C1FC01EE0FFF1FEA59FE4FEEC0DB
:1009E000811530E2930758F4811541E0940708F02F
:1009F00061C1803F910508F416C190650895811585
:100A000020E3920708F0DDC09F70880F991F8A517C
:100A10009D4FFC01D3C0811535E5930708F043C015
:100A2000811544E5940708F0E6C0811522E5920798
:100A300008F5811531E5930708F0C9C0482F4370C8
:100A400021E030E002C0220F331F4A95E2F73C68F4
:100A5000AC0164E0569547956A95E1F74370342BF5
:100A60008F708695869540E2849FC0011124822B69
:100A7000932B0895282F26952695AC014370552772
:100A80008115934508F0A8C030E2239FC0011124CE
:100A900021E030E002C0220F331F4A95E2F7822B9B
:100AA000932B9C680895803340E7940790F480323C
:100AB00020E7920708F0AAC0811536E5930708F4ED
:100AC0009FC09C0130562115304108F0ACC09F708A
:100AD0009BC0813320E7920709F49FC008F49AC0B5
:100AE000823340E7940709F49BC08333904709F0B1
:100AF0009AC080E093ED0895853A910509F496C077
:100B0000863A910509F495C083E890E40895883AFF
:100B1000910509F491C0893A910509F490C08A3A87
:100B2000910509F48FC08B3A910509F48EC08C3A77
:100B3000910509F48DC08B3B910509F48CC08C3B69
:100B4000910509F48BC08D3A910509F48AC0803B68
:100B5000910509F489C08E3A910509F488C08F3A4D
:100B6000910509F487C0813B910509F486C0823B59
:100B7000910509F485C0833B910509F484C0843B49
:100B8000910509F483C0853B910509F482C0863B39
:100B9000910509F481C0873B910509F480C0883B29
:100BA000910509F47FC0893B910509F47EC08A3B19
:100BB000910509F07DC08AE296E4089585919491AB
:100BC00008959927906C08959F70906A0895982FC2
:100BD0008827816F906A089530E2239FC001112415
:100BE00021E030E002C0220F331F4A95E2F7822B4A
:100BF000932B9A680895982F8827846F906A089598
:100C00008F719927982F8827906208958052904776
:100C1000946D089580E091ED089580E090ED089541
:100C200080E092ED089580E090E0089581E890E4FE
:100C3000089582E890E4089582EE94E4089589EEA0
:100C400094E408958AEE94E4089585EB94E408957D
:100C500086EB94E4089583EB94E4089584EB94E4A4
:100C6000089587EB94E408958CEC94E408958DEC5A
:100C700094E4089583E895E408958AE895E4089556
:100C800082E995E4089584E995E4089581E296E483
:100C9000089583E296E4089584E296E4089585E257
:100CA00096E4089586E296E4089587E296E408952E
:100CB00080E094E4089580E090E0089508959CE039
:100CC000799FF001112490E3899FE00DF11D11241B
:100CD000E60FF11DEE0FFF1FEA59FE4F859194912B
:100CE00008958238910549F1B0F48133910509F4F2
:100CF00059C048F48932910509F44FC08A329105F0
:100D000009F455C008958533910509F441C089332C
:100D1000910599F00895833E910531F138F4803EB4
:100D2000910591F0823E9105A9F00895863E9105C6
:100D300001F1873E910539F108952091180320FDB6
:100D40003BC021FD39C008958091180380FF34C055
:100D500089E341C08091180382FF32C0809118035B
:100D600084FF2CC080E037C08091180382FD28C02A
:100D7000F5CF8091180383FF25C08091180384FD6F
:100D8000F1CF87EE28C08091180383FD1BC0F5CFFB
:100D90008091180385FF18C019C08091180385FF42
:100DA00015C012C08091180386FF12C013C0809135
:100DB000180386FF0FC00CC080EE0DC083EE0BC081
:100DC00082EE09C086EE07C085E305C089E203C054
:100DD00081E301C08AE290E008950895CF93DF9304
:100DE000EC01FB018281811102C081E040C0809151
:100DF0007701811125C0C531D047B9F70E94ED06B2
:100E000081E0809377010E947F1690937601809312
:100E1000750110926A0110926C0110926B01109290
:100E20006E0110926D011092700110926F0110927C
:100E3000720110927101109274011092730116C028
:100E400080917501909176010E948B16883C9105E6
:100E500060F680916A01E82FF0E0EE0FFF1FE55980
:100E6000FE4FD183C0838F5F80936A0180E0DF9162
:100E7000CF910895089508950C943B07CF93DF9385
:100E800085B7806885BF85B7806885BFAAE3B1E074
:100E900021E030E08D91E82FE295EF70F0E041A184
:100EA0008F70B90102C0660F771F8A95E2F7CB01F8
:100EB000962F9095492341A392A1982B92A371E07C
:100EC000AE33B70739F7AEE2B1E021E030E08D9103
:100ED000E82FE295EF70F0E041A18F70B90102C0F8
:100EE000660F771F8A95E2F7CB01962F90954923DD
:100EF00041A392A1982B92A371E0AA33B70739F7C7
:100F0000E8E8F1E0C0E8D1E0A8E7B1E01192119281
:100F1000199219921D921D9281E0E039F807B1F7FC
:100F2000DF91CF910C9475044F925F927F928F92D4
:100F30009F92AF92BF92CF92DF92EF92FF920F9368
:100F40001F93CF93DF930AE311E0C8E7D1E0EE24CB
:100F5000E394F12C99249394BE01A880B98019825E
:100F60001882D8012D918D01E22FE295EF70F0E00B
:100F700081A12F70A70102C0440F551F2A95E2F7E7
:100F80009A01842B81A382A1842E8094882182A33C
:100F900050EA5A95F1F74EE2442E41E0542E80E09B
:100FA00090E0D2014D912D01C42EC2943FE0C322A6
:100FB000D12CD60190967C90C880D9804F70D701F3
:100FC00002C0AA0FBB1F4A95E2F77A2241F4A7019B
:100FD000082E02C0440F551F0A94E2F702C040E0F9
:100FE00050E04C295D295983488301968C30910546
:100FF000C1F681A1882181A382A1822B82A322969E
:10100000FB0180819181A816B90641F09092900170
:101010000E947F169093920180939101F1E00E332C
:101020001F0709F099CF80919001882351F1809199
:101030009101909192010E948B16069710F1809178
:101040007801909179019093890180938801809132
:101050007A0190917B0190938B0180938A0180911A
:101060007C0190917D0190938D0180938C01809102
:101070007E0190917F0190938F0180938E01109259
:1010800090010E94630481E0DF91CF911F910F9145
:10109000FF90EF90DF90CF90BF90AF909F908F9098
:1010A0007F905F904F900895E82FF0E0EE0FFF1FC4
:1010B000E857FE4F80819181089508958F929F9205
:1010C000BF92CF92DF92EF92FF920F931F93CF9335
:1010D000DF931F92CDB7DEB7B82E6A01790189017F
:1010E0000E5F1F4FC80169830E946D2A4C01FC01ED
:1010F000B08269816183A701B60102960E94942B98
:10110000C8010E94521F0E946D2A6C01A801B401FF
:101110000E947E1F8C017C01F5E0EF0EF11CC701DF
:101120000E946D2A4C0180EFF401808311821282AB
:101130001382E00FF11F87EF8483A801B601C40179
:1011400004960E94942BA401B70187E292E00F90CD
:10115000DF91CF911F910F91FF90EF90DF90CF9093
:10116000BF909F908F900C944A1CFA0190838183CA
:1011700072836383089581E008950C94BB080C94F6
:10118000BD08EF92FF920F931F93CF93DF93CDB7DC
:10119000DEB7C55CD1090FB6F894DEBF0FBECDBF78
:1011A000282F8B01CC53DF4F2883C45CD040CB5316
:1011B000DF4F9883C55CD0400E94BF08CC53DF4FFF
:1011C0002881C45CD040CB53DF4F9881C55CD040B0
:1011D000882309F4D9C0F8014081423380F44033B8
:1011E00008F0D2C0413109F4CFC018F4403139F1D0
:1011F000C5C0403271F0413209F0C0C0C5C04034B2
:1012000008F4BCC0423408F4BFC0403809F0B6C08E
:10121000BBC0F8018181823039F0843081F4F8015B
:1012200082810E94F4150BC0F80182810E94EB15A7
:10123000F801628170E080E090E00E945213F801B2
:10124000818190E0FC013197EE30F10508F09CC0FF
:10125000E859FF4F0C94672A20E030E040E050E06E
:1012600061E08AC082E090E00E949D2B898321E0AA
:1012700030E0AE014F5F5F4F68E07EC083E090E0FA
:101280000E949D2B898321E030E0AE014F5F5F4FCC
:1012900062E072C06091DB017091DC018091DD0140
:1012A0009091DE01AE014F5F5F4F0E94B50824E0D0
:1012B00030E0AE014F5F5F4F63E05EC020E030E0A2
:1012C00040E050E069E058C086E090E00E949D2B2D
:1012D000898321E030E0AE014F5F5F4F65E04CC095
:1012E00020E030E040E050E066E046C00E94F015AB
:1012F000898321E030E0AE014F5F5F4F64E03CC086
:1013000084E089838CE08A8322E030E0AE014F5F85
:101310005F4F6DE031C0F801A281A98384E08A8328
:101320008CE08B83CE0101967E01F1E6EF0EF11C7D
:1013300020E6A29FD0011124A81BB90BAC01BC016F
:101340006A0F7B1F20E030E06A597E4FFB01E20FFD
:10135000F31F05911491FC01E20FF31F1383048323
:101360002E5F3F4F2831310589F748968E159F052E
:1013700031F723EC30E06EE081E104C0392FA801A1
:1013800060E080E80E945E08CB53DF4F0FB6F89410
:10139000DEBF0FBECDBFDF91CF911F910F91FF90A8
:1013A000EF900895CF93DF93EC01FB01CE3180E7FE
:1013B000D80739F482818823B1F081E080939301CA
:1013C00010C0CF3180E7D80771F48281882359F0AB
:1013D0001092930120E04BE760E087E292E00E94E8
:1013E000131C80E05EC080919301882309F458C0EB
:1013F0002081828191812B3049F4933081F58823BB
:1014000009F44FC0809108018F5F0AC02A3059F457
:10141000933029F5882309F444C080910801815054
:1014200080930801D7CF293051F49330C1F4882339
:10143000B1F0809106019091070101960BC0283010
:1014400071F4933061F4882351F0809106019091FA
:10145000070101979093070180930601BBCF40914C
:101460000801420F20910601420F24E030E0291BC1
:101470003109922F990F990F920F490F2FE760E0D2
:10148000882329F087E292E00E94231C04C087E2AF
:1014900092E00E94331C81E0CF3FD10510F4A1CF30
:1014A00081E0DF91CF910895909399018093980105
:1014B0000895E0919801F0919901309721F0019001
:1014C000F081E02D099480E00895E0919801F09179
:1014D0009901309721F00280F381E02D099408955D
:1014E000E0919801F0919901309721F00480F58105
:1014F000E02D09940895209196013091970182176B
:10150000930771F09093970180939601E091980171
:10151000F0919901309721F00680F781E02D099430
:10152000089520919401309195018217930771F0ED
:101530009093950180939401E0919801F091990125
:10154000309721F00084F185E02D099408950895E5
:101550000C94A70A0E9476160E943E070E94FC1671
:101560000C94461B5F926F927F928F929F92AF92E4
:10157000BF92CF92DF92EF92FF920F931F93CF9380
:10158000DF93CDB7DEB72A970FB6F894DEBF0FBE54
:10159000CDBF0E9494079BE9C92E91E0D92E00E0AF
:1015A00010E0AA24A394B12C502E802F0E9454083E
:1015B0003C01F601E190F1906F01E826F926E11473
:1015C000F104B1F40F5F1F4F0430110569F78FEF7D
:1015D00089838A831B820E947F168160782F9D8376
:1015E0008C8349815A816B818D810E946B0B3AC03B
:1015F0008091F00181FD0E945D0820E030E045010E
:10160000022E02C0880C991C0A94E2F7C4018E21B4
:101610009F21892B09F12E835F826820792081E048
:10162000672809F480E088870E947F168160782F00
:101630009A8789874E815F8168858A850E946B0BB6
:10164000F801EE0FFF1FE556FE4F8081918188253E
:1016500099259183808306C02F5F3F4F2C30310541
:1016600071F6B0CF0E948E1810919A010E94590A0B
:101670001817D9F00E94590A80939A012A960FB63A
:10168000F894DEBF0FBECDBFDF91CF911F910F91B8
:10169000FF90EF90DF90CF90BF90AF909F908F9092
:1016A0007F906F905F900C94AA042A960FB6F894DE
:1016B000DEBF0FBECDBFDF91CF911F910F91FF9085
:1016C000EF90DF90CF90BF90AF909F908F907F90E2
:1016D0006F905F900895CF93DF93CDB7DEB72B97D0
:1016E0000FB6F894DEBF0FBECDBF4F835887698712
:1016F0007A878B87DE01119686E0FD0111928A952B
:10170000E9F785E0FE01379601900D928A95E1F7A1
:1017100049815A816B817C818D819E810E94221238
:101720002B960FB6F894DEBF0FBECDBFDF91CF91E1
:101730000895CF93C82F882309F4CCC0823859F478
:101740000E94590A81FDC6C089E30E94FF140E94CD
:101750008A1589E30CC0833879F40E94590A80FD08
:10176000B9C083E50E94FF140E948A1583E50E9498
:101770002015CF910C948A15843859F40E94590A87
:1017800082FDA8C087E40E94FF140E948A1587E4A6
:10179000EECF8CEF8C0F813A48F48C2F0E94B21A56
:1017A000811198C08C2F0E94FF14E3CF80E28C0F30
:1017B000883048F4C77081E001C0880FCA95EAF705
:1017C0000E944115D6CF8BE58C0F833078F4C53A53
:1017D00029F0C63A31F482E890E005C081E890E053
:1017E00002C083E890E0CF910C947B0A88E58C0FCF
:1017F000853108F06FC0C83A61F1C93A69F1CA3A57
:1018000071F1CB3A79F1CC3A81F1CB3B89F1CC3B08
:1018100091F1CD3A99F1C03BA1F1CE3AA9F1CF3A7D
:10182000B1F1C13BB9F1C23BC1F1C33BC9F1C43B0A
:10183000D1F1C53BD9F1C63BE1F1C73BE9F1C83B6A
:10184000F1F1C93BF9F1CA3B09F03FC08AE292E0ED
:101850003EC082EE90E03BC089EE90E038C08AEE58
:1018600090E035C085EB90E032C086EB90E02FC071
:1018700083EB90E02CC084EB90E029C087EB90E0F4
:1018800026C08CEC90E023C08DEC90E020C083E873
:1018900091E01DC08AE891E01AC082E991E017C08A
:1018A00084E991E014C081E292E011C083E292E009
:1018B0000EC084E292E00BC085E292E008C086E2AE
:1018C00092E005C087E292E002C080E090E0CF9114
:1018D0000C94910ACF910895882309F44BC0823863
:1018E00059F40E94590A81FF45C089E30E94FF1400
:1018F0000E948A1589E30CC0833871F40E94590A4A
:1019000080FF38C083E50E94FF140E948A1583E59A
:101910000E9420150C948A15843859F40E94590AA3
:1019200082FF28C087E40E94FF140E948A1587E482
:10193000EFCF9CEF980F913A58F390E2980F9830C0
:1019400050F4877091E001C0990F8A95EAF7892FCA
:101950000E944715DFCF9BE5980F933020F480E07D
:1019600090E00C947B0A885A853120F480E090E066
:101970000C94910A0895882321F00E9441150C943B
:101980008A150895882321F00E9447150C948A1522
:1019900008958F929F92AF92BF92CF92DF92EF9273
:1019A000FF920F931F93CF93DF931F92CDB7DEB7B4
:1019B0004C01A62E472FFC01E580E2948FE0E8223F
:1019C000F280FF2021F079830E945E1549814983CE
:1019D0000E94F8144981882381F0FF2071F080E291
:1019E0008A0D883050F082E00E94E1140E94F814C1
:1019F000BB24B394B826498101C0B12CE42FE295F1
:101A0000EF70F0E0EA58FF4F0C94672A842F807F34
:101A1000142F1F70882311F01295107FFF2099F06A
:101A2000112309F49AC180E28A0D883010F0A110C8
:101A300004C0812F0E94411503C0812F0E945115BF
:101A40000E948A158AC18A2D0E946C0C112309F408
:101A5000C1C180E28A0D883010F0A11004C0812F2E
:101A60000E94471503C0812F0E9457150E948A15B6
:101A7000B1C1242F207F842F8F70203211F08295E6
:101A8000807FAA2021F0F1E0AF16B1F021C0FF2045
:101A900041F0EE2039F191E0E91224C00E94711565
:101AA00099C1EE2021F0E1E0EE1609F493C189839B
:101AB0000E94741589810BC1FF2029F0F5E0FE1505
:101AC00008F488C10FC094E09E1508F483C1FFC0DC
:101AD000FF2059F0EE2031F0F401958190FF3DC1D7
:101AE0009F7095830E94BB0C75C1EE2009F4EFC076
:101AF0003AC1242F26952695237030E02115310513
:101B000021F02130310561F065C1FF2021F08A2DDF
:101B1000942F937002C080E090E00E947B0A5AC12B
:101B2000FF2021F08A2D942F937002C080E090E076
:101B30000E94910A4FC18A2DFF2019F00E9496172A
:101B400002C00E94FE170E94831844C1842F837034
:101B500009F04EC0F1103EC12A2D2295269527701E
:101B6000220F220F8A2D8F70C82ED12CE12CF12C40
:101B7000022E04C0CC0CDD1CEE1CFF1C0A94D2F714
:101B8000A4FE10C06FE070E080E090E004C0660F3B
:101B9000771F881F991F2A95D2F7609570958095B9
:101BA000909503C060E070E0CB01242F2695269528
:101BB000237030E02230310569F02330310589F09F
:101BC0006C297D298E299F292130310571F00E94D1
:101BD000761300C16C297D298E299F290E949013BC
:101BE000F9C00E947613C701B6010E945C13F2C0CF
:101BF000FF2019F0842F817001C08695882309F495
:101C0000E9C02A2D229526952770220F220F8A2DB2
:101C10008F70C82ED12CE12CF12C022E04C0CC0CDC
:101C2000DD1CEE1CFF1C0A94D2F7A4FE10C06FE06E
:101C300070E080E090E004C0660F771F881F991F56
:101C40002A95D2F7609570958095909503C060E0D5
:101C500070E0CB01242F26952695237030E02230AA
:101C6000310569F02330310589F06C297D298E29F1
:101C70009F292130310571F00E944A14ABC06C29B4
:101C80007D298E299F290E946414A4C00E944A14B1
:101C9000C701B6010E9430149DC00A2D10E0F80162
:101CA000E05EF109E531F10508F053C0EA57FF4F56
:101CB0000C94672A1A2D1F70842F8F71FF2021F03A
:101CC0000E94C913812F0ECF0E94EA13812F0E9418
:101CD000C20C80C0FF2049F0F4E0FE1508F47AC081
:101CE000842F8F710E940F1475C085E08E1508F443
:101CF00071C0F6CFFF2039F0842F8F710E94C91375
:101D000069C0FF20C9F3842F8F710E94EA1362C05B
:101D1000FF2029F0842F8F710E94B4135BC00E94B2
:101D2000AA1358C0FF2051F0142F1F71812F0E9459
:101D3000C91363E0812F0E94D8144CC081E00E9437
:101D4000E11491E09E1508F045C082E00E94E11484
:101D500041C0FF2031F0EE2079F28A2D0E94990BCC
:101D600039C0EE2081F28A2D0E946C0C33C04F7076
:101D70006A2DC4010E945B060E94CF122BC0F11095
:101D800029C0942F9F70492F50E042305105B9F07F
:101D90004CF44115510581F041305105D9F40E94B0
:101DA000731B18C04330510569F04430510591F45C
:101DB0008A2D0E94C71B0EC00E94571B0BC00E9499
:101DC0008F1B08C00E94A21B05C04F706A2DC40162
:101DD0000E945E06BB20F1F00E94D41480FD1AC060
:101DE000F40112820E94CE140E94C913C4010E9401
:101DF000180F0E94CE140F90DF91CF911F910F9179
:101E0000FF90EF90DF90CF90BF90AF909F908F901A
:101E10000C94EA130F90DF91CF911F910F91FF90D7
:101E2000EF90DF90CF90BF90AF909F908F900895EC
:101E30000F931F93CF93DF93EC01288139818B811E
:101E40009C81892B31F03F3F11F080E003C02F3F90
:101E5000E1F781E0811113C0CE010E94FC028823CA
:101E600071F0688179818A810E94CA148C010E9474
:101E70007E140E945113B801CE010E94C90CDF915B
:101E8000CF911F910F9108950E945E150E946E15CB
:101E90000E9433150E948A150E942F190E948318F0
:101EA00080E090E00E947B0A80E090E00C94910A30
:101EB0000E944E150C94440F0E94BF14E92FE29526
:101EC000EF70F0E03297EE30F105B8F4E556FF4FD1
:101ED0000C94672A803F59F018F4803E70F407C0D4
:101EE000843F59F404C0803E10F0813F31F481E01A
:101EF000089593FB882780F9089580E00895CF9393
:101F0000DF9300D000D01F92CDB7DEB70F900F90B7
:101F10000F900F900F90DF91CF910895CF93DF93A3
:101F200000D000D000D0CDB7DEB726960FB6F8941B
:101F3000DEBF0FBECDBFDF91CF9108951F93CF932A
:101F4000DF93C091A30116E08091A401C81799F016
:101F5000D0E01C9FF0011D9FF00D1124EB55FE4FAA
:101F60004081518162817381848195810E948E0FAD
:101F70002196C770E9CFDF91CF911F9108954091CD
:101F8000D5015091D6016091D7017091D80180910F
:101F9000D9019091DA010C948E0FCF938091DA01E0
:101FA00082958F7009F05FC08091D701882309F472
:101FB0005AC02091A301A091A4016091D501709114
:101FC000D6018091D8019091D90131E06F3F09F09D
:101FD00030E0B32FC6E02A1709F445C0009721F07E
:101FE0007F3F21F44B2F03C041E001C040E030E0CF
:101FF00040FD35C0C29FF001C39FF00D1124EB5589
:10200000FE4F418174132BC04081641328C042816C
:10201000411125C0438154814817590710F441509C
:102020005109481B590B483C5105C8F48091DA010D
:102030008F7080618093DA0186E0829FF001839F38
:10204000F00D1124E655FE4F80818F7080618083F2
:1020500085ED91E00E94180FCF910C949E0F2F5F99
:102060003F4F2770B8CFCF910895CF92DF92EF9274
:10207000FF920F931F93CF93DF93CDB7DEB7629795
:102080000FB6F894DEBF0FBECDBF8C0185E0F8011E
:10209000DE011D9601900D928A95E1F7D8014C91D1
:1020A00011965C91119712966C9112971396ED9080
:1020B000FC9014977091D501E091D6012091D80140
:1020C0003091D9012115310531F0EF3F31F481E034
:1020D0007F3F19F403C081E001C080E0B82FB170E8
:1020E000CB2E80FD6CC1D090D701DD2009F4F5C066
:1020F000F091DA01E216F30638F0C701821B930B68
:10210000883C910548F09BC0209530952E0D3F1DD1
:10211000283C310508F093C08F2F807F09F052C012
:10212000E51314C0741312C0D62E61110FC0FF70D6
:10213000F061F093DA010E94BF0F85ED91E00E94FB
:10214000180F8091DA01F80185836CC1EF2831F016
:102150005F3F31F481E04F3F19F403C081E001C0DB
:1021600080E080FD03C081E0862701C080E0F82F79
:10217000F170FF2E80FF1CC08091A3012091A4016B
:1021800036E0821709F428C190E0389FF001399FAA
:10219000F00D1124EB55FE4F7181571306C070816D
:1021A000471303C07281671303C001968770E9CF9C
:1021B000D62E662309F436C18091DA0181608093BE
:1021C000DA0153C0E51308C0741306C0611104C0DE
:1021D000D8011596FC93AEC04D875E878D859E8590
:1021E0006A8B0E945C0F6A89882329F1D62E6623A8
:1021F00011F12091DA01822F82958F7090E0029781
:102200000CF460C08091D5019091D60198878F839E
:102210001986FB86EA862C87CE01079651C0E51702
:1022200031F14D875E878D859E856A8B0E945C0F9C
:102230006A8981112EC0C8010E94180FA4C08F2F77
:10224000807F69F77E2DF98AE88A89890E947F0F4D
:1022500085ED91E00E94180FE5EDF1E086E0DF01E9
:102260001D928A95E9F70E94BF0FD12CDBC0741331
:10227000D8CF6111D6CFD8011596FC93C8010E9422
:10228000180FE5EDF1E086E0DF011D928A95E9F790
:10229000C9C0D62E662379F22091DA01822F829569
:1022A0008F7090E0029774F08091D5019091D601E3
:1022B0009A8389831B82FD82EC822E83CE01019654
:1022C0000E94180F86E0F801A5EDB1E001900D9293
:1022D0008A95E1F70E94CD0F6FC0E216F30628F051
:1022E000C701821B930B9C0104C0209530952E0DD5
:1022F0003F1D283C310508F052C0D62E662309F454
:102300009ACFE5132CC074132AC08091DA0180FDA6
:102310001DC0982F92959F70C9F0D80115968C9387
:1023200015979F3039F09F5F9295907F8F70892B22
:1023300015968C93C8010E94180F86E0F801A5ED50
:10234000B1E001900D928A95E1F736C086E0F80180
:10235000A5EDB1E001900D928A95E1F763C04D873C
:102360005E878D859E850E945C0F882379F086E0CC
:10237000F801A5EDB1E001900D928A95E1F70E9478
:10238000CD0F0E94BF0FDD24D3944CC08091DA01A1
:1023900081608093DA01C8010E94180F43C07E2D2E
:1023A000F98AE88A89890E947F0FE5EDF1E086E0ED
:1023B000DF011D928A95E9F70E94BF0F33C06623A3
:1023C00009F439CF4D875E878D859E850E945C0F0D
:1023D000882309F430CFCBCF4D875E878D859E85CE
:1023E0000E94BF14292F22952F7030E02230310532
:1023F0002CF49F7041F0811106C00CC024303105CF
:102400002CF49F7049F4805E883020F0C8010E944F
:10241000180FCF2CDC2C06C0D80115969C91907F0C
:1024200091F7F8CF8D2D62960FB6F894DEBF0FBEF0
:10243000CDBFDF91CF911F910F91FF90EF90DF9073
:10244000CF9008951F93CF93DF93CDB7DEB72C972E
:102450000FB6F894DEBF0FBECDBF4F835887698794
:102460007A878B879C87CE0107960E943510882338
:10247000C1F02F8138858A859B85892B31F03F3FBC
:1024800011F080E003C02F3FE1F781E0811147C0E8
:102490004F81588569857A858B859C850E948E0F32
:1024A0003EC086E0FE013796DE01119601900D9246
:1024B0008A95E1F7FF81E8854A855B8541155105DD
:1024C00031F0EF3F31F481E0FF3F19F403C081E0C8
:1024D00001C080E080FD23C02091A40130E0C9014B
:1024E0000196877099276091A30170E0861797077E
:1024F000F1F1F983EA835D834C8396E0929FD001EA
:10250000939FB00D1124AB55BE4FFE013196019043
:102510000D929A95E1F78093A4010E949E0F16E018
:102520008091A3019091A401891779F1189FC001AE
:1025300011248B559E4F0E943510882331F1E09174
:10254000A3011E9FF0011124EB55FE4F40815181E4
:1025500062817381848195810E948E0F8091A30195
:1025600090E00196877099278093A301D9CF0E94AC
:10257000580F1092A4011092A301E5EDF1E086E05E
:10258000DF011D928A95E9F7CACF2C960FB6F89411
:10259000DEBF0FBECDBFDF91CF911F910895EF92A7
:1025A000FF920F931F93CF93DF939C01009709F441
:1025B00071C0F12CEE24E394E9012196F901849194
:1025C000843740F4843008F056C0813081F0823086
:1025D00021F160C0853709F449C0C0F19CE7980F2C
:1025E000903708F057C08F770E946C0C46C0890165
:1025F0000E5F1F4FFE01849190E2980F983050F4C7
:102600008770FE2D01C0FF0F8A95EAF78F2F0E9479
:10261000611515C00E94990B14C089010E5F1F4FF0
:10262000FE01849190E2980F983068F48770FE2D37
:1026300001C0FF0F8A95EAF78F2F0E9467150E944D
:102640008A15E8011AC00E946C0CFBCF2E5F3F4F29
:10265000FE01C491CC2341F08FE99FE00197F1F78F
:1026600000C00000C150F6CFE90107C0FE01F490A0
:10267000E901229602C00E94990B8F2D882341F018
:10268000EFE9FFE03197F1F700C000008150F6CF8D
:102690009E0192CFDF91CF911F910F91FF90EF900C
:1026A000089508956093DF017093E0018093E10144
:1026B0009093E2010C94440F0F931F930091DF015C
:1026C0001091E0012091E1013091E201062B172BDE
:1026D000282B392B0093DF011093E0012093E101B7
:1026E0003093E2011F910F910C94440F0F931F93AD
:1026F0000091DF011091E0012091E1013091E201B0
:1027000006231723282339230093DF011093E001C8
:102710002093E1013093E2011F910F910C94440F3B
:102720000F931F930091DF011091E0012091E101CF
:102730003091E20106271727282739270093DF0168
:102740001093E0012093E1013093E2011F910F917A
:102750000C94440F1092DB011092DC011092DD0109
:102760001092DE010C94440F41E050E060E070E014
:1027700004C0440F551F661F771F8A95D2F74093F8
:10278000DB015093DC016093DD017093DE010C945A
:10279000440F41E050E060E070E004C0440F551F7A
:1027A000661F771F8A95D2F78091DB019091DC013B
:1027B000A091DD01B091DE01842B952BA62BB72BC8
:1027C0008093DB019093DC01A093DD01B093DE01E7
:1027D0000C94440F41E050E060E070E004C0440F0E
:1027E000551F661F771F8A95D2F7409550956095C3
:1027F00070958091DB019091DC01A091DD01B09199
:10280000DE0184239523A623B7238093DB019093D5
:10281000DC01A093DD01B093DE010C94440F41E094
:1028200050E060E070E004C0440F551F661F771F42
:102830008A95D2F78091DB019091DC01A091DD01B6
:10284000B091DE0184279527A627B7278093DB0167
:102850009093DC01A093DD01B093DE010C94440F52
:102860000F931F930091DB011091DC012091DD019A
:102870003091DE01062B172B282B392B0093DB011F
:102880001093DC012093DD013093DE011F910F9145
:102890000C94440F0F931F930091DB011091DC0106
:1028A0002091DD013091DE010623172328233923EF
:1028B0000093DB011093DC012093DD013093DE01F6
:1028C0001F910F910C94440F0F931F930091DB0104
:1028D0001091DC012091DD013091DE0106271727E0
:1028E000282739270093DB011093DC012093DD01B9
:1028F0003093DE011F910F910C94440F0895CF92F5
:10290000DF92EF92FF920F931F93CF93DF93EC012F
:10291000C090DF01D090E001E090E101F090E20191
:102920008091DB019091DC01A091DD01B091DE018D
:10293000C82AD92AEA2AFB2A0FE110E0B701A6012A
:10294000002E04C076956795579547950A94D2F75F
:1029500040FD05C00150110988F780E007C0BE01A5
:10296000802F0E94AC040197A9F3802FDF91CF91B3
:102970001F910F91FF90EF90DF90CF900895CF932C
:10298000DF93EC010E947F14BE010E94AC04DF9132
:10299000CF910895CB010E94BF1408958091E30167
:1029A00085958595859508958091E30187700895B3
:1029B00098E0899F90011124622B6093E3010C94AD
:1029C000C9134091E301809584238093E301982FFC
:1029D000977069F450E0282F332727FD3095421770
:1029E000530729F08595859585950C94EA130895EC
:1029F0009091E301977081E009F480E0089540919F
:102A0000090150910A0120E030E09FEFFA01E20F46
:102A1000F31F6281681799F09F3F19F4611101C09B
:102A2000922F2F5F3F4F2630310581F79F3F39F0BE
:102A3000FA01E90FF11D97FDFA9582830895089533
:102A40004091090150910A0120E030E0FA01E20FC3
:102A5000F31F9281981301C012822F5F3F4F2630DF
:102A60003105A1F7089581E090E0E0910901F0912E
:102A70000A01E80FF91F1082019688309105A9F725
:102A800008959091EF01982B9093EF010895809510
:102A90009091EF0198239093EF0108951092EF0128
:102AA00008959091EE01982B9093EE0108958095F2
:102AB0009091EE0198239093EE0108951092EE010B
:102AC00008959091ED01982B9093ED0108958095D4
:102AD0009091ED0198239093ED0108951092ED01EE
:102AE00008958093E40108951092E40108954091BF
:102AF000090150910A0120E030E080E0FA01E20F84
:102B0000F31F918191118F5F2F5F3F4F2730310568
:102B1000A9F70895E0910901F0910A018091EF0170
:102B20008083E0910901F0910A0180819091EE018A
:102B3000892B8083E0910901F0910A0180819091B5
:102B4000ED01892B80839091E401992361F0E0915C
:102B50000901F0910A018081892B80830E947715F9
:102B600081111092E4018091090190910A010C9465
:102B7000650A6DEE7EEF80E090E00E94BD2B60E084
:102B800082E090E00E94AB2B60E083E090E00E9446
:102B9000AB2B60E084E090E00E94AB2B60E085E02E
:102BA00090E00E94AB2B60E086E090E00C94AB2BB1
:102BB00080E090E00E94A52B21E08D3E9E4F09F021
:102BC00020E0822F089582E090E00C949D2B83E01A
:102BD00090E00C949D2B682F83E090E00C94AB2B3D
:102BE00084E090E00C949D2B682F84E090E00C949E
:102BF000AB2B86E090E00C949D2B682F86E090E054
:102C00000C94AB2B80911F03843039F11092F101A9
:102C100020E488E190E00FB6F894A89580936000D6
:102C20000FBE2093600080E00E94790480E00E9443
:102C3000AA0483B7817F846083BF83B7816083BF29
:102C40007894889583B78E7F83BF88E10FB6F89418
:102C500080936000109260000FBE0895089508955B
:102C6000CF930E942E160E9494070E942F16C0E058
:102C70008C2F0E945408892B29F4CF5FC430C1F7F0
:102C800080E001C081E0CF9108950E94580F0E941A
:102C9000461B0E94590A0C94AA041F920F920FB669
:102CA0000F9211248F939F93AF93BF938091F10163
:102CB000811113C08091140390911503A091160304
:102CC000B09117034196A11DB11D809314039093F9
:102CD0001503A0931603B0931703BF91AF919F9173
:102CE0008F910F900FBE0F901F90189582E084BDBA
:102CF00093E095BD9AEF97BD80936E0008952FB72E
:102D0000F8948091140390911503A0911603B0914B
:102D100017032FBF0895CF92DF92EF92FF920F9388
:102D20001F932FB7F89440911403509115036091AD
:102D30001603709117032FBF6A017B01EE24FF2455
:102D40008C0120E030E0C016D106E206F30610F454
:102D500041505109481B590BCA011F910F91FF9017
:102D6000EF90DF90CF9008951F920F920FB60F92C1
:102D700011248F939F93AF93BF93809114039091ED
:102D80001503A0911603B09117030196A11DB11D63
:102D90008093140390931503A0931603B093170325
:102DA000BF91AF919F918F910F900FBE0F901F9089
:102DB00018950E942826F8942FEF87EA91E6215073
:102DC00080409040E1F700C0000087E090EBDC011C
:102DD00080932C0390932D03A0932E03B0932F0385
:102DE0002CE088E190E00FB6F894A89580936000FD
:102DF0000FBE20936000FFCF0E94D815811102C042
:102E00000E94B9150E94E3158093F0010E94F0150D
:102E100090E090931903809318030E94E715682FA0
:102E200070E080E090E00C9452138091F40180FFF8
:102E30000BC060910E0185E0689FB001112475956B
:102E40006795759567952AC081FF09C060910E014D
:102E500085E0689FB0011124759567951FC082FFBA
:102E600007C060910E0185E0689FB001112416C073
:102E70004091F5014423C9F060910D01461788F790
:102E800020910E0185E0289F90011124429FC001EE
:102E9000439F900D112470E00E94532A6038710501
:102EA00040F46115710539F002C065E070E0862FCD
:102EB00008958FE7089581E008958091F40180FFDF
:102EC00008C060910C0170E07595679575956795E0
:102ED00021C081FF06C060910C0170E07595679577
:102EE00019C082FF04C060910C0170E010C0809195
:102EF000F5018823C1F060910B018617A0F790912E
:102F00000C01989FC001112470E00E94532A603880
:102F1000710528F46115710521F0862F08958FE75A
:102F2000089581E0089561E070E0F4CF803F21F4DE
:102F30000E941517819504C0813F29F40E9415173E
:102F40008093F8010895823F21F40E94151781951E
:102F500004C0833F29F40E9415178093F701089558
:102F6000893F19F40E945D1705C08A3F31F40E9421
:102F70005D1781958093F90108958B3F21F40E949C
:102F80005D17819504C08C3F29F40E945D178093E2
:102F9000FA010895843F21F48091F601816017C001
:102FA000853F21F48091F601826011C0863F21F4B3
:102FB0008091F60184600BC0873F21F48091F60177
:102FC000886005C0883F31F48091F601806180936C
:102FD000F60108958D3F21F48091F40181600BC0CA
:102FE0008E3F21F48091F401826005C08F3F29F467
:102FF0008091F40184608093F4010895803F39F456
:103000008091F80187FF6CC01092F80169C0813F80
:1030100029F48091F8011816BCF362C09091F70171
:10302000823F29F497FF5CC01092F70159C0833F9B
:1030300019F41916CCF354C0893F41F48091F90179
:1030400018160CF04DC01092F9014AC08A3F29F4BD
:103050008091F90187FF44C0F6CF8B3F39F480910E
:10306000FA0187FF3DC01092FA013AC08C3F29F463
:103070008091FA011816BCF333C0843F21F480918B
:10308000F6018E7F17C0853F21F48091F6018D7F78
:1030900011C0863F21F48091F6018B7F0BC0873FE2
:1030A00021F48091F601877F05C0883F31F480913B
:1030B000F6018F7E8093F60113C08D3F21F480913D
:1030C000F4018E7F0BC08E3F21F48091F4018D7F3F
:1030D00005C08F3F29F48091F4018B7F8093F40128
:1030E0008091F70181110EC08091F80181110AC011
:1030F0008091F901811106C08091FA01811102C00D
:103100001092F501089586EF91E00E94700A0E94E6
:103110007F169093F3018093F20108951F93CF934C
:10312000DF938091F2019091F3010E948B16409100
:10313000F501442321F020910F0130E006C02091D9
:1031400010015AE0259F900111248217930708F47B
:1031500082C08091F7011091F801D091F901C091DE
:10316000FA01811107C0111105C0D11103C0CC2390
:1031700009F471C04F3F19F04F5F4093F5011816E5
:1031800024F40E9415178093F7018091F70187FFBF
:1031900005C00E94151781958093F701111624F43C
:1031A0000E9415178093F8018091F80187FF05C0F0
:1031B0000E94151781958093F8016091F7016623AD
:1031C00039F11091F801112319F1772767FD7095F6
:1031D000872F972F0E94502923E333E343E35FE3D4
:1031E0000E94B4290E941D296093F701612F77275F
:1031F00067FD7095872F972F0E94502923E333E3B3
:1032000043E35FE30E94B4290E941D296093F80103
:103210001D1624F40E945D178093F9018091F90135
:1032200087FF05C00E945D1781958093F9011C16E8
:1032300024F40E945D178093FA018091FA0187FFC0
:1032400005C00E945D1781958093FA01DF91CF91AF
:103250001F910C948318DF91CF911F910895E6EF91
:10326000F1E085E0DF011D928A95E9F71092F50102
:103270001092F4010895833081F128F4813059F0DF
:103280008230D1F00895853009F449C0B8F1863014
:1032900009F456C0089520911001862F90E0820F06
:1032A000911D8F3F910520F4620F609310010895E6
:1032B0008FEF80931001089520910F01862F90E0E9
:1032C000820F911D8F3F910520F4620F60930F01D3
:1032D00008958FEF80930F01089520910E01862F9E
:1032E00090E0820F911D8F3F910520F4620F609353
:1032F0000E0108958FEF80930E01089520910D0126
:10330000862F90E0820F911D8F3F910520F4620F70
:1033100060930D0108958FEF80930D010895209122
:103320000C01862F90E0820F911D8F3F910520F4B4
:10333000620F60930C0108958FEF80930C01089544
:1033400020910B01862F90E0820F911D8F3F9105F8
:1033500020F4620F60930B0108958FEF80930B01AF
:103360000895833011F128F4813049F0823091F0D2
:103370000895853081F120F18630C1F10895809162
:103380001001681720F4861B809310010895109295
:103390001001089580910F01681720F4861B809317
:1033A0000F01089510920F01089580910E01681782
:1033B00020F4861B80930E01089510920E0108954B
:1033C00080910D01681720F4861B80930D010895EC
:1033D00010920D01089580910C01681720F4861B4E
:1033E00080930C01089510920C01089580910B01B7
:1033F000681720F4861B80930B01089510920B012F
:1034000008958732F8F48E3108F085C08E3009F4C3
:1034100065C048F4873009F447C08B3009F491C087
:10342000863051F127C0863109F48BC020F48031F9
:1034300009F45EC01FC0893109F483C08B3109F4DF
:1034400043C018C0883309F47CC050F4893209F4B1
:1034500070C0853309F46DC0873209F46AC00AC0B0
:10346000833409F466C020F48A3308F052C002C0E5
:10347000883461F080E008958091F001817F8E7F33
:103480008093F00181E08093FC0108950E94580F21
:103490002FEF83ED90E3215080409040E1F700C092
:1034A00000000E94D9164DC09091F001892F80959F
:1034B000817080FB90F99093F001811142C0997F57
:1034C000977F9093F0013DC09091F00191FB882788
:1034D00080F921E0822780FB91F913C09091F001DF
:1034E00092FB882780F921E0822780FB92F909C0AE
:1034F0009091F00193FB882780F921E0822780FBDF
:1035000093F99093F0018823E1F091609093F0019A
:10351000089527EC01C023EE280F61E070E080E001
:1035200090E004C0660F771F881F991F2A95D2F775
:1035300004C061E070E080E090E00E9452130E94BD
:10354000580F81E0089580E0089580E008958E513D
:103550008A3030F4E82FF0E0E25CFE4F808108957D
:1035600080E00895CF93C82F8091FC01813069F0ED
:1035700018F08230B1F180C0E0910901F0910A01A8
:103580008081823209F07AC007C0E0910901F09190
:103590000A018081823249F48C2F0E94A31A811182
:1035A0001DC08C2F0E94011A1AC08C2F0E94A51AD0
:1035B000811114C0C43179F048F4CB3079F0C031B6
:1035C00009F060C082E08093FC0108C0C93219F0A4
:1035D000C83321F057C01092FC0154C081E08170C3
:1035E00053C0C93289F118F5C43171F1B0F4C73054
:1035F00009F046C08EE18093100182E380930F01B1
:103600008AE080930E0184E180930D0188E080932D
:103610000C0188E280930B0133C082EE8C0F863060
:1036200078F58C2F0E94A71A8093FB0129C0CE3415
:10363000E9F020F4CB3421F56AE013C0C13579F00C
:10364000C235F1F461E00DC08091FB01882319F0CF
:103650001092FB0115C081E08093FC0115C061E070
:1036600006C08091FB010E943B190AC06AE080916C
:10367000FB010E94B11904C01092FC0180E004C05B
:1036800081E002C080E0ABCFCF9108950E94D815B1
:10369000811102C00E94B9150E94F91580931A0386
:1036A00080FF02C0869501C080E00C9479042091CF
:1036B0001A03322F3695832F90E0039744F491E05C
:1036C000930F990F822F8170892B80931A03809119
:1036D0001A03816080931A030E94FD1580911A03DA
:1036E00086950C94790480911A03982F969591F001
:1036F0009158990F8170892B80931A038E7F91E0E6
:1037000009F490E080911A0390FB80F980931A03EA
:103710000E94FD1580911A0386950C94790480917E
:103720001A03982F909590FB80F980931A030E94BA
:10373000FD1580911A0380FF02C0869501C080E0CC
:103740000C94790430911A03232F26952F5F2F773D
:10375000822F90E0317004972CF4220F232B2093BA
:103760001A0302C030931A0380911A038E7F91E0EE
:1037700009F490E080911A0390FB80F980931A037A
:103780000E94FD1580911A0386950C94790420916E
:103790001A03922F96959827990F822F8170892B63
:1037A00080931A038E7F91E009F490E080911A03D0
:1037B00090FB80F980931A030E94FD1580911A03F3
:1037C00086950C947904881F8827881F089591E0B6
:1037D000883F08F490E0892F0895982F907F903BC0
:1037E00099F038F4903981F0903A71F09038C9F43A
:1037F0000BC0903DA1F018F4903C89F012C0903EAF
:1038000019F0903F19F00DC083E00895EFE0E80F44
:10381000EF3038F4F0E0E85BFE4F8081089582E0FD
:10382000089580E008950F932F774F776F70606B46
:10383000DC01ED91FC91022F242F462F63E070E014
:1038400009950F9108950F932F774F776F706069E7
:10385000DC01ED91FC91022F242F462F63E070E0F4
:1038600009950F9108950F932F774F776F706068C8
:10387000DC01ED91FC91022F242F462F63E070E0D4
:1038800009950F9108950F93DC01ED91FC91099535
:103890000F9108956F927F928F929F92AF92BF92F5
:1038A000CF92DF92EF92FF920F93CF93DF9300D0EE
:1038B0001F92CDB7DEB74C015B013A01E12CF12C30
:1038C000EA14FB0400F519821A821B826501CE18E6
:1038D000DF0884E0C816D10418F053E0C52ED12CBF
:1038E000B3016E0D7F1DA601CE0101960E94942B9F
:1038F0000B812A814981B601C4010E94431C83E0E7
:10390000E80EF11CDDCF0F900F900F90DF91CF915B
:103910000F91FF90EF90DF90CF90BF90AF909F906E
:103920008F907F906F900895FC0173836283089558
:10393000FC01738F628F0895FC01758F648F089569
:10394000CF93DF93EC011DA21FA21EA2BC01685DF4
:103950007F4F40EC88519F4F0E94CE1E1B821A82DF
:103960001D821C821F821E82198618861B861A865B
:103970001D861C861F861E86198A188A1B8A1A8A2B
:103980001D8A1C8A1F8A1E8A198E188E1B8E1A8EFB
:103990001D8E1C8E1F8E1E8E19A218A2DF91CF9134
:1039A0000895EF92FF920F931F93CF93DF93F62E1C
:1039B000E42EEA018C0108511F4F8C2F8E198F15B0
:1039C00028F46991C8010E94D51EF7CFDF91CF91ED
:1039D0001F910F91FF90EF900895FC017183608318
:1039E0000895FC0171A360A30895AF92BF92CF9296
:1039F000DF92EF92FF920F931F93CF93DF9300D04C
:103A00001F92CDB7DEB77C016B01142FB22EA02E12
:103A1000DC0195968C9195978430F1F45A96ED914E
:103A2000FC915B97309709F4C0C0CB01019763E02C
:103A300070E00E943F2ADB01AA0FBB1FA60FB71F31
:103A400049832A830B834C2D4A1B9E012F5F3F4FD6
:103A5000BD01C7010995B6C06230710509F452C0B5
:103A60006330710529F06130710509F099C080C09B
:103A7000842F807F803AF9F058F48038B1F0803993
:103A800009F093C0D7011496ED91FC9115972AC0C7
:103A9000803EB9F0803FD9F0803B09F086C0D70165
:103AA0001296ED91FC9113971DC0D7011696ED91DA
:103AB000FC91179717C0D7011896ED91FC911997B3
:103AC00011C0D7011A96ED91FC911B970BC0423F94
:103AD00009F06BC0D7011C96ED91FC911D973097B2
:103AE00031F463C0309709F460C0123F21F42A2DED
:103AF0004B2D62EF04C02A2D4B2D612F6F70C70133
:103B0000099560C0842F807F803D59F0803F79F017
:103B1000803C09F04AC0D7011E96ED91FC911F9799
:103B200018C0D7015096ED91FC91519712C0433FB8
:103B300031F4D7015296ED91FC91539707C0413F64
:103B4000A1F5D7015496ED91FC915597309739F432
:103B50002CC0309751F1812F8D7F813F19F44B2D6F
:103B6000612F03C04B2D612F6F70C70109952AC0CB
:103B7000842F0E94E71B882331F0D7015696ED91E0
:103B8000FC91579707C0163F81F4D7015896ED91E5
:103B9000FC915997309749F0612FC701099512C0E0
:103BA0006430710510F0C12CD12CD7015C96ED91D9
:103BB000FC915D97309731F00A2D2B2D412FB601E6
:103BC000C7010995D7015E96ED91FC915F973097FB
:103BD00031F00A2D2B2D412FB601C70109950F9009
:103BE0000F900F90DF91CF911F910F91FF90EF9069
:103BF000DF90CF90BF90AF900895EF92FF920F9318
:103C00001F93CF93DF93EC01162F862F0E94E71BA3
:103C1000882369F0FDA081E08DA300E020E0412F22
:103C200061E070E0CE010E94F51CFDA27CC0812FF6
:103C30000E94E31B4DA1882309F440C0443029F0C1
:103C40001AA321E030E03FA32EA3812F0E94ED1B99
:103C5000813031F070F0823051F0833041F02AC071
:103C60008DA300E020E0412F61E070E01EC08DA335
:103C70005AC0103FB1F0173FE9F42EA13FA1C9018E
:103C800063E070E00E943F2A8C0F9D1FFC0112A38D
:103C9000B9016F5F7F4F7FA36EA30CA12BA14AA137
:103CA00004C084E08DA31AA32CC0CE010E94F51C91
:103CB0001DA239C01DA21FA21EA235C0442399F126
:103CC0002EA13FA1C90163E070E00E943F2A7C0160
:103CD000FE01E80FF91F12A3B9016F5F7F4F7FA3A9
:103CE0006EA38130910591F082E0E816F104D9F4D9
:103CF0000CA12BA14AA1CE010E94F51C8DA18430FC
:103D000091F081E090E09FA38EA30DC0423059F462
:103D100000E02BA14AA1CE010E94F51C8DA18430A8
:103D200011F0FFA2EEA2DF91CF911F910F91FF90B2
:103D3000EF900895CF92DF92EF92FF920F931F932F
:103D4000CF93DF93EC01E8A1F9A1309709F0099531
:103D50008E0108511F4FC8010E94071FE12CF12C52
:103D6000C82ED12CEC14FD0480F460E0C8010E9440
:103D70001B1F682FCE010E94FD1D61E0C8010E943B
:103D80002C1F8FEFE81AF80AEDCFDF91CF911F912A
:103D90000F91FF90EF90DF90CF900895FC01428348
:103DA000748363831182108208950F931F93CF93BE
:103DB000DF93EC01062F0E944D1F182F298130E060
:103DC000C90101966A8170E00E94532A488150E03F
:103DD0008417950729F4812F0E94501F80E012C09C
:103DE000EB81FC81E20FF31F00832981822F90E099
:103DF00001966A8170E00E94532A8983812F0E9474
:103E0000501F81E0DF91CF911F910F910895CF93C3
:103E1000DF93EC010E944D1F29819881291710F032
:103E2000C22F02C0CA81C20FC91B0E94501F8C2F13
:103E3000DF91CF910895FC012081862F90E0820FC1
:103E4000911D628170E00E94532A0380F481E02D6D
:103E5000E80FF91F808108950F931F93CF93DF938D
:103E60001F92CDB7DEB78C0169830E944D1F482F8A
:103E7000F80180816981262F30E0280F311D628191
:103E800070E0C9010E94532A8083842F0F90DF9134
:103E9000CF911F910F910C94501F8FB7F8940895F4
:103EA0008FBF089567E070E00E943F2A23E0660F0D
:103EB000771F2A95E1F7009721F00196860F971F4B
:103EC0000895CB010895482F47709C0153E0369523
:103ED00027955A95E1F7442351F057E0529FC001CE
:103EE000539F900D11240197840F911D089547E071
:103EF000429FC001439F900D112408956F927F92BD
:103F00009F92AF92BF92CF92DF92EF92FF920F9368
:103F10001F93CF93DF937C013B015A01CA0167E0F5
:103F200070E00E943F2A8301F70120E030E026176D
:103F3000370731F11082C801A0E0B0E0EC019990A0
:103F4000CE011196492D4078C42ED12C0A2E02C0E4
:103F5000D594C7940A94E2F740814C294083AF017D
:103F60004A0F5B1FD92DDF779D2EEA019882A7307B
:103F7000B10521F72F5F3F4F095F1F4F3896D7CF0D
:103F8000C50167E070E00E943F2AA90163E0440F89
:103F9000551F6A95E1F7009751F1F701E40FF51FFE
:103FA000108267E0629FD001639FB00D1124A60DBF
:103FB000B71D20E030E01D912F5F3F4F612F6078EB
:103FC00070E0022E02C0759567950A94E2F7708141
:103FD000762B7083EF01C20FD31F1F77188328172A
:103FE000390749F7C9010196840F951F01C0CA011D
:103FF000DF91CF911F910F91FF90EF90DF90CF90C5
:10400000BF90AF909F907F906F9008958F929F92F6
:10401000BF92CF92DF92EF92FF920F931F93CF93B5
:10402000DF936A01B3E0D694C794BA95E1F74230C2
:10403000510508F466C04C01DB0120E030E02C158E
:104040003D0529F18401E1E0F0E07D01EE0EFF1E67
:10405000E701B880DB2DDF77BD2EE801B882EC9058
:104060000E2E01C0EE0C0A94EAF7DE2DD078ED2E6C
:10407000EB28E801E9928E013196E830F10529F745
:104080002F5F3F4FD7E08D0E911C1896D8CF477009
:1040900089F1F901A3E0EE0FFF1FAA95E1F757E0C0
:1040A000529F7001539FF00C1124DC01AE0DBF1D17
:1040B00020E030E050E0CA010197E60FF71F281713
:1040C000390798F4BF01620F731FEB0119811F7745
:1040D0001C932F5F3F4F6081022E01C0660F0A9430
:1040E000EAF76078612B6D93EACFC7010197840FDF
:1040F000951F09C047E0429FC001439F900D1124C6
:1041000002C080E090E0DF91CF911F910F91FF906E
:10411000EF90DF90CF90BF909F908F900895FC011B
:10412000CB0120911F032430B1F421812F70209303
:10413000E90040E050E064E070E00E944D2481110D
:104140000DC08091E80085FD08C08091E8008E7761
:104150008093E80002C082E0089580E008952091F5
:104160001F032430A1F4FC0181818F708093E9004A
:104170002091F3008091F20090E0922B892B49F07E
:104180008091E8008E778093E8000C94F82582E017
:10419000089580E0089520911F03243051F4FC011C
:1041A00021812F702093E9002091E80020FD0C94DC
:1041B000AF200895FC01CB0120911F03243011F0A2
:1041C00080E0089526812F702093E9002091E80077
:1041D00022FFF6CF2091E80025FFF2CF40E050E02B
:1041E00064E070E00E9496248091E80085FD05C09F
:1041F0008091E8008B778093E80081E008958091BA
:104200002502089508950895CF93DF93EC010E944D
:10421000A01C6FE571E2CE010E94ED1C67E171E226
:10422000CE010E94F11C7894DF91CF9108950F93F5
:104230001F93CF93DF93CDB7DEB727970FB6F894D0
:10424000DEBF0FBECDBF8C01BE016F5F7F4F81E12E
:1042500091E00E94DA208823B1F08A810E94ED1B50
:104260009A819D839B819E839C819F8381111FC026
:1042700089818430C9F08730B9F08630B9F0853053
:1042800019F781E014C081E191E00E94CB200E94E7
:10429000002927960FB6F894DEBF0FBECDBFDF9181
:1042A000CF911F910F91089583E001C082E0AE018C
:1042B0004B5F5F4F682FC8010E94D11CC5CFEF92A2
:1042C000FF920F93CF93DF9300D000D000D0CDB7F3
:1042D000DEB77B014A832B830C83842F2E834D838F
:1042E0000E94ED1B2E814D8181111BC082E0E816DA
:1042F000F10471F083E0E816F10421F0EA94EF286C
:1043000021F50BC0073F11F487E005C084E003C02E
:10431000273FE1F786E0898307C0473FB9F785E08B
:10432000FACF42954F704983BE016F5F7F4F81E1A5
:1043300091E00E948F2081E191E00E94AF2081E115
:1043400091E00E94CB200E94002926960FB6F89497
:10435000DEBF0FBECDBFDF91CF910F91FF90EF90E9
:104360000895CF93DF9300D01F92CDB7DEB7209191
:104370001F03243019F523E029839B838A8320932C
:10438000E9008FEF9091E800815095FD06C095ED12
:104390009A95F1F700008111F5CF8091E80085FF33
:1043A0000DC040E050E063E070E0CE0101960E9455
:1043B0004D248091E8008E778093E8000F900F9055
:1043C0000F90DF91CF910895CF93DF9300D01F928C
:1043D000CDB7DEB720911F03243021F522E02983D9
:1043E0009B838A8383E08093E9008FEF9091E800BC
:1043F000815095FD06C095ED9A95F1F70000811169
:10440000F5CF8091E80085FF0DC040E050E063E00B
:1044100070E0CE0101960E944D248091E8008E77D5
:104420008093E8000F900F900F90DF91CF91089547
:1044300020911F032430F1F422E02093E9002FEFB4
:104440003091E800215035FD06C035ED3A95F1F781
:1044500000002111F5CF2091E80025FF0BC040E0BE
:1044600050E065E070E00E944D248091E8008E7776
:104470008093E8000895CF93DF93EC0180911F03B0
:10448000843039F581E08093E9008FEF9091E80066
:10449000815095FD06C095ED9A95F1F700008111C8
:1044A000F5CF8091E80085FF14C040E050E068E05F
:1044B00070E0CE010E944D248091E8008E778093B9
:1044C000E80088E0FE01ADE1B2E001900D928A952E
:1044D000E1F7DF91CF910895CF92DF92EF92FF92B3
:1044E0000F931F93CF93DF93EB01D42EC22E24970B
:1044F0008901802F8C198D15E0F4F801D8018D9178
:104500008D01DE01A350BE4F14968C938081873FAE
:1045100071F4CE010E94631F0E946D2A7C01AE01DE
:1045200061E072E00E940620B7010E94C108219656
:10453000E0CFDF91CF911F910F91FF90EF90DF902F
:10454000CF90089580911E03811109C00E942826F2
:104550000E9485268091E20084608093E2000895A5
:1045600010921E030895089508950C94451642E094
:1045700061EC81E00E94A22542E061EC82E00E94B1
:10458000A22542E061EC83E00E94A22542E361E8BB
:1045900084E00E94A22542E360E885E00C94A22515
:1045A00080912103833009F453C030F4813071F0DD
:1045B000823009F48CC008958A3009F478C08B30B9
:1045C00009F45EC0893009F09AC020C080912003B0
:1045D000813A09F094C08091E800877F8093E800D9
:1045E0008091240390912503892B21F060E080E0E5
:1045F00090E003C068E08DE192E070E00E94DF246B
:104600008091E8008B778093E800089580912003E3
:10461000813209F074C08091240390912503892B85
:1046200009F06DC08091E800877F8093E800809159
:10463000E80082FD05C080911F038111F8CF5FC0A3
:104640008091F100809325028091E8008B7753C020
:1046500080912003813A09F052C080912403909107
:104660002503892B09F04BC08091E800877F809358
:10467000E8008091E80080FFFCCF80912D0136C0DA
:10468000809120038132D9F58091240390912503F4
:10469000892BA9F58091E800877F8093E8000E942C
:1046A000D7258091220380932D010C94580F80917F
:1046B0002003813221F58091E800877F8093E80014
:1046C0000E94D7258091230380932602089580912C
:1046D0002003813AA1F48091E800877F8093E8006D
:1046E0008091E80080FFFCCF809126028093F1004A
:1046F0008091E8008E778093E8000C94D725089588
:1047000087E292E00E94A01C6FE571E287E292E0EE
:104710000E94ED1C67E171E287E292E00E94F11CC9
:1047200084B7877F84BF88E10FB6F89480936000D8
:10473000109260000FBE80E88093610010926100CB
:104740000E94A80A0E9428260E9485268091E200E5
:1047500084608093E200789462E071E287E292E004
:104760000E949C1C63E071E287E292E00E94941C2C
:104770006CE672E287E292E00E94981C0E94002997
:104780000E94AA0A8DE191E00E94540A80911F03C1
:10479000853069F40E94021680911D038823B1F3CD
:1047A0000E943016882391F30E943724EFCF0E9495
:1047B000B20A87E292E00E949A1EE8CF292F33279F
:1047C00023303105A9F06CF42130310509F442C0E1
:1047D0002230310509F043C080EB90E022E433E061
:1047E00042C021323105C9F02232310519F137C0FA
:1047F00099278130910541F08230910541F0892B54
:1048000071F5EEE3F3E005C0E0E1F3E002C0E6EEAF
:10481000F2E0849190E09F0126C0633000F5E62F1E
:10482000F0E0EE0FFF1FE05AFE4F2081318189E05A
:1048300090E019C0633098F4E62FF0E0DF01AA0F92
:10484000BB1FA65ABE4F2D913C91E95AFE4F808165
:1048500090E009C082E190E022EF33E004C080E004
:1048600090E020E030E0FA0131832083089580E178
:1048700089BD82E189BD09B400FEFDCF8091D800D9
:104880008F7D8093D8008091E00082608093E0006B
:104890008091E00081FDFCCF0895CF92DF92EF92EE
:1048A000FF920F931F93CF93DF937C018B01EA015B
:1048B0000E94F825811131C0209731F088819981BB
:1048C000081B190BE80EF91EC12CD12C011511057E
:1048D00019F18091E80085FD14C08091E8008E7781
:1048E0008093E800209741F0888199818C0D9D1D6F
:1048F0009983888385E011C00E94F825882331F3CD
:104900000CC0F70181917F018093F10001501109E2
:10491000FFEFCF1ADF0ADACF80E0DF91CF911F914E
:104920000F91FF90EF90DF90CF900895CF92DF929C
:10493000EF92FF920F931F93CF93DF937C018B0134
:10494000EA010E94F825811131C0209731F0888159
:104950009981081B190BE80EF91EC12CD12C0115E9
:10496000110519F18091E80085FD14C08091E800DF
:104970008B778093E800209741F0888199818C0D96
:104980009D1D9983888385E011C00E94F8258823A6
:1049900031F30CC08091F100F70181937F01015048
:1049A0001109FFEFCF1ADF0ADACF80E0DF91CF9154
:1049B0001F910F91FF90EF90DF90CF90089520917D
:1049C0002603309127032617370748F06115710534
:1049D00039F42091E8002E772093E80001C0B90156
:1049E000FC0120E061157105B9F180911F03882356
:1049F00009F440C0853009F43FC08091E80083FD90
:104A00003DC08091E80082FF06C08091E80082FFEF
:104A100026C080E008958091E80080FFE3CF2091D8
:104A2000F3008091F20090E0922B6115710551F036
:104A30008830910538F421912093F100615071097B
:104A40000196F3CF21E0089709F020E08091E8007B
:104A50008E778093E800C6CF2111C7CFD6CF809143
:104A60001F03882339F0853039F08091E80083FFF7
:104A7000CCCF04C082E0089583E0089581E00895DA
:104A800020912603309127032617370748F0611538
:104A9000710539F42091E8002E772093E80001C0D9
:104AA000B901FC0120E061157105C1F180911F037E
:104AB000882309F441C0853009F440C08091E800A2
:104AC00083FD3EC08091E80082FF06C08091E8002F
:104AD00082FF27C080E008958091E80080FFE3CF47
:104AE0002091F3008091F20090E0922B6115710506
:104AF00059F08830910540F424912093F1003196CB
:104B0000615071090196F2CF21E0089709F020E089
:104B10008091E8008E778093E800C5CF2111C6CF41
:104B2000D5CF80911F03882339F0853039F08091EB
:104B3000E80083FFCBCF04C082E0089583E00895AE
:104B400081E00895982F973058F59093E9009817D1
:104B500039F07091EC002091ED005091F00003C00D
:104B6000242F762F50E021FF19C03091EB003E7FBB
:104B70003093EB003091ED003D7F3093ED003091AC
:104B8000EB0031603093EB007093EC002093ED006C
:104B90005093F0002091EE0027FF07C09F5FD3CF16
:104BA0008F708093E90081E0089580E008958091FE
:104BB000200387FD05C08091E80080FF0EC012C071
:104BC0008091E80082FD05C080911F038111F8CF1C
:104BD00008958091E8008B7708C080911F038111B0
:104BE000EACF08958091E8008E778093E8000895D9
:104BF0008091E4009091E50045E62091EC0020FFD3
:104C000021C02091E80020FD21C020911F03222314
:104C100089F0253089F02091EB0025FD0FC020910F
:104C2000E4003091E5002817390739F3415041F08D
:104C3000C901E3CF82E0089583E0089581E00895FB
:104C400084E008952091E80022FFDFCF80E00895FE
:104C50000E9496260E949E26E0EEF0E08081816010
:104C60008083E8EDF0E080818F77808319BCA7ED29
:104C7000B0E08C918E7F8C9380818F7E80831092A8
:104C80001E0308950F931F93CF93DF930E949626E0
:104C90000E949E26C8EDD0E088818F778883888126
:104CA0008068888388818F7D888319BC10921F0358
:104CB00010921B0310921D0310921C0300EE10E0D3
:104CC000F80180818B7F808388818160888342E0C6
:104CD00060E080E00E94A225E1EEF0E080818E7F1E
:104CE0008083E2EEF0E08081816080838081886053
:104CF0008083F80180818E7F8083888180618883B2
:104D0000DF91CF911F910F910895E8EDF0E0808140
:104D10008F7E8083E7EDF0E080818160808384E096
:104D200082BF81E080931E030C944226E8EDF0E000
:104D300080818E7F80831092E20008951092DA00C5
:104D40001092E10008951F920F920FB60F92112456
:104D50002F933F934F935F936F937F938F939F9383
:104D6000AF93BF93EF93FF938091E10082FF0BC05D
:104D70008091E20082FF07C08091E1008B7F8093E9
:104D8000E1000E94FF288091DA0080FF1FC080911F
:104D9000D80080FF1BC08091DA008E7F8093DA00FC
:104DA0008091D90080FF0DC080E189BD82E189BD7D
:104DB00009B400FEFDCF81E080931F030E94A22270
:104DC00005C019BC10921F030E94B0228091E1001F
:104DD00080FF19C08091E20080FF15C08091E20041
:104DE0008E7F8093E2008091E20080618093E200F8
:104DF0008091D80080628093D80019BC85E08093B0
:104E00001F030E94B4228091E10084FF30C0809192
:104E1000E20084FF2CC080E189BD82E189BD09B434
:104E200000FEFDCF8091D8008F7D8093D8008091C7
:104E3000E1008F7E8093E1008091E2008F7E80937D
:104E4000E2008091E20081608093E20080911B0388
:104E5000882311F084E007C08091E30087FF02C03F
:104E600083E001C081E080931F030E94B5228091FE
:104E7000E10083FF29C08091E20083FF25C080917B
:104E8000E100877F8093E10082E080931F0310920E
:104E90001B038091E1008E7F8093E1008091E2000E
:104EA0008E7F8093E2008091E20080618093E20037
:104EB00042E060E080E00E94A2258091F0008860DE
:104EC0008093F0000E94B322FF91EF91BF91AF91C8
:104ED0009F918F917F916F915F914F913F912F9112
:104EE0000F900FBE0F901F9018951F920F920FB644
:104EF0000F9211242F933F934F935F936F937F9360
:104F00008F939F93AF93BF93CF93EF93FF93C091F2
:104F1000E900CF708091EC001092E9008091F000E0
:104F2000877F8093F00078940E94B1271092E90067
:104F30008091F00088608093F000C093E900FF91B9
:104F4000EF91CF91BF91AF919F918F917F916F9191
:104F50005F914F913F912F910F900FBE0F901F9037
:104F600018951F93CF93DF93CDB7DEB7AA970FB6EF
:104F7000F894DEBF0FBECDBFE0E2F3E08091F10018
:104F8000819323E0E832F207C9F70E94D022809192
:104F9000E80083FF1CC12091200330912103832F5F
:104FA00090E08A30910508F012C1FC01E755FF4FEF
:104FB0000C94672A203881F0223809F008C18091CA
:104FC00024038F708093E9008091EB0085FB882794
:104FD00080F91092E90006C080911C0390911D0396
:104FE000911182609091E800977F9093E800809300
:104FF000F1001092F100C5C0822F8D7F09F0E7C04B
:10500000222319F0223061F0E2C080912203813026
:1050100009F0DDC0333009F080E080931D0328C023
:1050200080912203811124C0209124032F7009F460
:10503000CEC02093E9008091EB0080FF19C08091E1
:10504000EB00333011F4806211C080618093EB007B
:1050500081E090E0022E01C0880F0A94EAF7809365
:10506000EA001092EA008091EB0088608093EB00E8
:105070001092E9008091E800877F86C02111A7C0C7
:10508000109122031F778091E3008078812B809319
:10509000E3008091E800877F8093E8000E94D72595
:1050A0008091E80080FFFCCF8091E30080688093CE
:1050B000E300112311F083E001C082E080931F031D
:1050C00086C02058223008F082C08091220390913F
:1050D00023038C3D23E0920779F583E08A838AE2FB
:1050E00089834FB7F894DE01139620E03EE051E249
:1050F000E32FF0E050935700E49120FF03C0E295C6
:10510000EF703F5FEF708E2F90E0EA3010F0C7969F
:1051100001C0C0968D939D932F5F243149F74FBFF7
:105120008091E800877F8093E8006AE270E0CE011A
:1051300001960E94DF2414C0AE014F5F5F4F609163
:1051400024030E94DE23009709F441C02091E80067
:10515000277F2093E800BC0189819A810E94402525
:105160008091E8008B778093E80031C0203879F592
:105170008091E800877F8093E80080911B038093F3
:10518000F1008091E8008E778093E8000E94D72597
:105190001EC021111CC0909122039230C0F4809156
:1051A000E800877F8093E80090931B030E94D72537
:1051B00080911B03811104C08091E30087FF02C02E
:1051C00084E001C081E080931F030E94B722809198
:1051D000E80083FF0AC08091E800877F8093E800A1
:1051E0008091EB0080628093EB00AA960FB6F89452
:1051F000DEBF0FBECDBFDF91CF911F9108950895FF
:10520000CF9380911F038823B1F08091E9008F70C4
:105210009091EC0090FF02C090E801C090E0C92F8F
:10522000C82B1092E9008091E80083FD0E94B1270D
:10523000CF70C093E900CF91089504D06894B11164
:105240008DC0089570D088F09F5790F0B92F99279E
:10525000B751A0F0D1F0660F771F881F991F1AF081
:10526000BA95C9F712C0B13081F077D0B1E0089596
:1052700074C0672F782F8827B85F39F0B93FCCF317
:10528000869577956795B395D9F73EF49095809577
:10529000709561957F4F8F4F9F4F0895E89409C097
:1052A00097FB3EF490958095709561957F4F8F4F59
:1052B0009F4F9923A9F0F92F96E9BB279395F6956F
:1052C000879577956795B795F111F8CFFAF4BB0FED
:1052D00011F460FF1BC06F5F7F4F8F4F9F4F16C051
:1052E000882311F096E911C0772321F09EE8872FDB
:1052F000762F05C0662371F096E8862F70E060E097
:105300002AF09A95660F771F881FDAF7880F96950F
:10531000879597F9089557FD9058440F551F59F0F8
:105320005F3F71F04795880F97FB991F61F09F3F92
:1053300079F087950895121613061406551FF2CFBB
:105340004695F1DF08C0161617061806991FF1CF0B
:1053500086957105610508940895E894BB27662732
:105360007727CB0197F908950BD078C069D028F042
:105370006ED018F0952309F05AC05FC01124EECF0B
:10538000CADFA0F3959FD1F3950F50E0551F629FA0
:10539000F001729FBB27F00DB11D639FAA27F00D8E
:1053A000B11DAA1F649F6627B00DA11D661F829FB5
:1053B0002227B00DA11D621F739FB00DA11D621F9A
:1053C000839FA00D611D221F749F3327A00D611DB7
:1053D000231F849F600D211D822F762F6A2F112499
:1053E0009F5750408AF0E1F088234AF0EE0FFF1FEC
:1053F000BB1F661F771F881F91505040A9F79E3F23
:10540000510570F014C0AACF5F3FECF3983EDCF377
:10541000869577956795B795F795E7959F5FC1F75F
:10542000FE2B880F911D9695879597F9089597F90A
:105430009F6780E870E060E008959FEF80EC08953A
:1054400000240A9416161706180609060895002463
:105450000A9412161306140605060895092E0394DD
:10546000000C11F4882352F0BB0F40F4BF2B11F451
:1054700060FF04C06F5F7F4F8F4F9F4F0895AA1B3F
:10548000BB1B51E107C0AA1FBB1FA617B70710F02F
:10549000A61BB70B881F991F5A95A9F78095909561
:1054A000BC01CD01089597FB072E16F4009407D098
:1054B00077FD09D00E943F2A07FC05D03EF4909565
:1054C00081959F4F0895709561957F4F0895EE0FD8
:1054D000FF1F0590F491E02D0994CF93DF93823064
:1054E000910510F482E090E0E0912A03F0912B0303
:1054F00020E030E0A0E0B0E0309739F14081518108
:1055000048175907B8F04817590771F482819381F9
:10551000109729F013969C938E9312972CC090931A
:105520002B0380932A0327C02115310531F0421740
:10553000530718F0A901DB0101C0EF019A01BD0179
:10554000DF010280F381E02DD7CF21153105F9F07D
:10555000281B390B2430310580F48A819B81611529
:10556000710521F0FB019383828304C090932B0388
:1055700080932A03FE01329644C0FE01E20FF31F1E
:105580008193919322503109398328833AC0209125
:10559000280330912903232B41F4209102013091FB
:1055A00003013093290320932803209100013091B7
:1055B00001012115310541F42DB73EB74091040199
:1055C00050910501241B350BE0912803F09129032C
:1055D000E217F307A0F42E1B3F0B2817390778F0CA
:1055E000AC014E5F5F4F2417350748F04E0F5F1F29
:1055F00050932903409328038193919302C0E0E0E4
:10560000F0E0CF01DF91CF910895CF93DF93009722
:1056100009F487C0FC01329713821282C0912A03D9
:10562000D0912B03209781F420813181280F391FDD
:1056300080912803909129038217930779F5F093BD
:105640002903E09328036DC0DE0120E030E0AE17AF
:10565000BF0750F412964D915C9113979D0141152F
:10566000510509F1DA01F3CFB383A283408151815F
:10567000840F951F8A179B0771F48D919C91119748
:10568000840F951F02969183808312968D919C9131
:105690001397938382832115310529F4F0932B030B
:1056A000E0932A033EC0D9011396FC93EE93129720
:1056B0004D915D91A40FB51FEA17FB0779F4808126
:1056C0009181840F951F0296D90111969C938E9318
:1056D0008281938113969C938E931297E0E0F0E081
:1056E0008A819B81009719F0FE01EC01F9CFCE0170
:1056F000029628813981820F931F209128033091CF
:1057000029032817390769F4309729F410922B03DD
:1057100010922A0302C013821282D0932903C093ED
:105720002803DF91CF910895FB01DC0102C00190B5
:105730000D9241505040D8F70895F999FECF92BD8F
:1057400081BDF89A992780B50895A8E1B0E042E0BC
:1057500050E00C94C52B262FF999FECF92BD81BD48
:10576000F89A019700B4021639F01FBA20BD0FB69F
:10577000F894FA9AF99A0FBE08950196272F0E947D
:10578000AC2B0C94AB2BDC01CB01FC01F999FECFC7
:1057900006C0F2BDE1BDF89A319600B40D924150B9
:0A57A0005040B8F70895F894FFCFC9
:1057AA0000003003200007000CE5012808140A3223
:1057BA001E048440000001054000000100FF203B58
:1057CA00221822E421B1215F211721042101F1F0DD
:1057DA003067F4F5F6F794963497909535360102CA
:1057EA00030405060708090002030200000100017C
:1057FA0001010101000101404D3687043A04040405
:06580A0054036D03860348
:00000001FF
