:100000000C94A5020C94E9020C94E9020C94E90208
:100010000C94E9020C94E9020C94E9020C94E902B4
:100020000C94E9020C94E9020C943A2F0C940C30D5
:100030000C948E1E0C94E9020C94E9020C94E902D3
:100040000C94E9020C94E9020C94E9020C94E90284
:100050000C94E9020C94F51E0C94E9020C94E9024C
:100060000C94E9020C94E9020C94E9020C94E90264
:100070000C94E9020C94E9020C94E9020C94E90254
:100080000C94740D0C94E9020C94E9020C94E902AE
:100090000C94E9020C94E9020C94E9020C94E90234
:1000A0000C94E9020C94E9020C94E902220428045D
:1000B0002C042F04330437043B043F044404480455
:1000C0004C045004530457045B045F046304680445
:1000D000750987099309C509B309BF09130A7B0983
:1000E000A709130A130A130ACF09DA0939153915B2
:1000F0006C156C15AC15CE151D171D17D9151D17D0
:1001000080168016EA16F2161D1718178D168D1612
:100110008D168D168D168D168D168D168D168D16C7
:100120008D168D168D168D168D168D169D16AD1687
:10013000B416BB16C5169D179D17B017B017A61796
:10014000B017B017B0179D179D17AC17B017B017A1
:10015000AC17713093307E3193307E31D530F8302A
:100160007E314D31603107634236B79BD8A71A39CB
:10017000685618AEBAAB558C1D3CB7CC5763BD6DF5
:10018000EDFD753EF6177231BF000000803F08009C
:100190000000BE922449123EABAAAA2ABECDCCCC06
:1001A0004C3E00000080BEABAAAAAA3E00000000A0
:1001B000BF000000803F0000000000084178D3BB72
:1001C0004387D1133D190E3CC3BD4282AD2B3E681F
:1001D000EC8276BED98FE1A93E4C80EFFFBE01C410
:1001E000FF7F3F00000000002B0014001A000800F1
:1001F000150017001C0018000C00120013002A0044
:10020000290004001600070009000A000B000D0079
:100210000E000F00330034003C701D001B00060070
:1002200019000500110010003600370038003D703D
:100230000351E000E300E20044702C002C00457004
:10024000500051005200280048003A003B003C009A
:100250003D002202230224022502260227024C002E
:1002600001003E003F00400041004A0000002D0216
:100270002E002F02300231000100420043004400F2
:1002800045004D0000002D022E022F00300001001D
:10029000010000000100000001000000000000005B
:1002A000AA00A900AA004F0035001E001F00200070
:1002B00021002200230024002500260027004C05F1
:1002C0004C003A003B003C003D003E003F002D004A
:1002D0002E002F003000310001004000410042009C
:1002E0004300440045002D026400010001000100AC
:1002F00001000100010001000100010001000100F6
:10030000AA00AA00A9004F00007019701A703C00E2
:100310003D000000000049000000240025002600E8
:1003200000003E003F00400041000000000051007E
:10033000520021002200230001004200430044003B
:1003400045002D012D0350004F001E001F0020000E
:100350000100E000E300E20000002800280049005E
:1003600000002700370038002803540068006500AB
:10037000200050006C0061006E0063006B002000E4
:100380004B006500790062006F006100720064003C
:1003900000002C034F007200740068006F006C00B6
:1003A00069006E0065006100720020004B0065006E
:1003B000790062006F006100720064007300000049
:1003C000040309040902B000050100A0FA090400B1
:1003D0000001030101000921110100012240000771
:1003E00005810308000A0904010001030102000954
:1003F0002111010001224D000705820308000A09AE
:10040000040200010300000009211101000122364D
:10041000000705830308000A090403000001010026
:10042000000924010001090001040904040002017B
:10043000030000072401000141000624020101001D
:10044000062402020200092403010301020100093B
:100450002403020401010100090505024000050012
:100460000005250101010905840240000500000581
:10047000250101031201100100000008EDFE60607B
:1004800004000102000105010980A1018502168115
:100490000026B7001A81002AB70075109501810067
:1004A000C0050C0901A1018503160100269C021A52
:1004B00001002A9C02751095018100C00501090206
:1004C000A1010901A100050919012905150025014E
:1004D00095057501810295017503810105010930BA
:1004E00009311581257F9502750881060938158126
:1004F000257F950175088106050C0A3802158125AE
:100500007F950175088106C0C005010906A1010596
:100510000719E029E7150025019508750181029565
:1005200001750881010508190129059505750191D5
:10053000029501750391010507190029FF15002691
:10054000FF00950675088100C00011241FBECFEF83
:10055000DAE0DEBFCDBF04B603FE24C080915204B2
:1005600090915304A0915404B09155048730904B5E
:10057000A740B04BB9F41092520410925304109259
:1005800054041092550414BE84B7877F84BF88E159
:100590000FB6F89480936000109260000FBEE0E008
:1005A000F8E3099511E0A0E0B1E0E0E3FEE602C067
:1005B00005900D92A43EB107D9F714E0A4EEB1E086
:1005C00001C01D92A235B107E1F70E94172C0C94CF
:1005D00016370C9400006E9A769A0C948307CF938A
:1005E000DF93EC010E94231EBE0180E090E0DF91CA
:1005F000CF910C94851BCF93FB01843420E79207A5
:1006000079F0853420E7920771F08034904701F546
:10061000C281CC23F1F081E090E00E94EF020EC095
:10062000C28181E002C0C28182E0CC2349F00E94F5
:10063000FC1B43E062E081E00E943003C0E009C09F
:100640000E941D1C43E062E081E00E94300301C073
:10065000C1E08C2FCF91089581E008950C94FB02A6
:10066000CF92DF92EF92FF920F931F9301E010E081
:1006700020E030E06801790104C0CC0CDD1CEE1CE8
:10068000FF1C8A95D2F7D701C60104C0000F111FC5
:10069000221F331F6A95D2F7802B912BA22BB32BED
:1006A0000091F5021091F6022091F7023091F802C4
:1006B000082319232A233B23081719072A073B0776
:1006C00049F4842F1F910F91FF90EF90DF90CF900E
:1006D0000C94FC1B842F1F910F91FF90EF90DF90E3
:1006E000CF900C941D1C0E94220C0C948507279A15
:1006F0002F988FEF9FEF90938700809386008AE07A
:100700008093800089E1809381000C9482230E9471
:1007100077030C94EB022F9881110AC0809180001E
:10072000877F8093800010928D0010928C00089536
:10073000833041F4809180008860809380008FEF47
:100740009FEF12C09091800098609093800023E00A
:1007500030E0281B3109220F331F8FEF9FEF02C0BB
:10076000969587952A95E2F790938D0080938C005B
:10077000089508950C94B9030C94BA0308950E9447
:100780008B170E948A0C0E94BE032FEF84E39CE02B
:10079000215080409040E1F700C000000C941A1FE7
:1007A0000F931F93CF93DF93EC0108811981C80148
:1007B0000E94B21CB8010E94A8068C01BE010E94D2
:1007C0002E03882309F40BC1BE01C8010E94210A2F
:1007D000882309F404C1BE01C8010E94B10A88231C
:1007E00009F4FDC0BE01C8010E943707882309F43F
:1007F000F6C0053180E7180708F0A0C0023080E796
:10080000180708F477C08A81882309F47FC00E9402
:10081000101E811102C00E94EC1D0E94281E90E053
:1008200090933F0480933E04F801E350F047E23197
:10083000F10520F4EA5AFF4F0C94AA3580913E044A
:10084000816003C080913E04826080933E044BC06F
:1008500080913E048460F9CF80913E0413C0809162
:100860003E048061F2CF80913E048062EECF8091A1
:100870003E048064EACF80913E048068E6CF809198
:100880003E0484608860E1CF80913E048E7FDDCF9E
:1008900080913E048D7FD9CF80913E048B7FD5CF50
:1008A00080913E0413C080913E048F7ECECF809114
:1008B0003E048F7DCACF80913E048F7BC6CF80914E
:1008C0003E048F77C2CF80913E048B7F877FBDCF60
:1008D00090913E0497FB882780F921E0822780FBD6
:1008E00097F990933E0480913E040E942C1E0E9432
:1008F0008B1775C0011580E7180779F00130104794
:1009000099F081E08093E6018093E701CE01DF91C9
:10091000CF911F910F910C942C038A81882309F4A5
:100920005EC00E94BF035BC08A81882309F457C060
:1009300080910A03816080930A0351C00C3380E7E1
:10094000180711F58A81882351F01092E6010E9460
:10095000C01E9093E5018093E40182E025C0809160
:10096000E60181110FC08091E4019091E5010E94A0
:10097000CC1E883C910530F486E20E94CC1386E2BE
:100980000E949F1482E018C00D33104709F0B9CFC0
:100990008A81882361F01092E7010E94C01E909323
:1009A000E5018093E40180E20E94EE1418C080917A
:1009B000E701882321F080E20E94F51410C08091A5
:1009C000E4019091E5010E94CC1E883C910598F7C6
:1009D00087E20E94CC1387E20E949F14ECCF80E054
:1009E000DF91CF911F910F9108952CE0729FF0013C
:1009F000112430E3839FE00DF11D1124E60FF11D5A
:100A0000EE0FFF1FE851FE4F859194910E94BA06A8
:100A1000811540E5940708F047C0811520E492074E
:100A200008F01BC1883E910520F5803E910508F035
:100A30008AC1883A910578F4853A910508F0A5C0F5
:100A40008130910509F47FC108F436C184309105E5
:100A500008F079C131C18D3B910508F4A1C0803CFB
:100A6000910508F429C1FC01EE0FFF1FE851FE4F6C
:100A7000EEC0811530E2930758F4811541E09407E8
:100A800008F061C1803F910508F416C19065089592
:100A9000811520E3920708F0DDC09F70880F991F31
:100AA00088599C4FFC01D3C0811535E5930708F0A8
:100AB00043C0811544E5940708F0E6C0811522E59E
:100AC000920708F5811531E5930708F0C9C0482F52
:100AD000437021E030E002C0220F331F4A95E2F755
:100AE0003C68AC0164E0569547956A95E1F7437020
:100AF000342B8F708695869540E2849FC001112427
:100B0000822B932B0895282F26952695AC014370B0
:100B100055278115934508F0A8C030E2239FC001F6
:100B2000112421E030E002C0220F331F4A95E2F782
:100B3000822B932B9C680895803340E7940790F4B0
:100B4000803220E7920708F0AAC0811536E59307A6
:100B500008F49FC09C0130562115304108F0ACC00C
:100B60009F709BC0813320E7920709F49FC008F46F
:100B70009AC0823340E7940709F49BC083339047BF
:100B800009F09AC080E093ED0895853A910509F443
:100B900096C0863A910509F495C083E890E40895DB
:100BA000883A910509F491C0893A910509F490C0F9
:100BB0008A3A910509F48FC08B3A910509F48EC0E9
:100BC0008C3A910509F48DC08B3B910509F48CC0DA
:100BD0008C3B910509F48BC08D3A910509F48AC0CC
:100BE000803B910509F489C08E3A910509F488C0CB
:100BF0008F3A910509F487C0813B910509F486C0BD
:100C0000823B910509F485C0833B910509F484C0BA
:100C1000843B910509F483C0853B910509F482C0AA
:100C2000863B910509F481C0873B910509F480C09A
:100C3000883B910509F47FC0893B910509F47EC08A
:100C40008A3B910509F07DC08AE296E4089585917A
:100C5000949108959927906C08959F70906A0895D3
:100C6000982F8827816F906A089530E2239FC001F2
:100C7000112421E030E002C0220F331F4A95E2F731
:100C8000822B932B9A680895982F8827846F906AF7
:100C900008958F719927982F882790620895805220
:100CA0009047946D089580E091ED089580E090ED77
:100CB000089580E092ED089580E090E0089581E845
:100CC00090E4089582E890E4089582EE94E4089513
:100CD00089EE94E408958AEE94E4089585EB94E413
:100CE000089586EB94E4089583EB94E4089584EBEF
:100CF00094E4089587EB94E408958CEC94E40895CB
:100D00008DEC94E4089583E895E408958AE895E4E9
:100D1000089582E995E4089584E995E4089581E2CF
:100D200096E4089583E296E4089584E296E40895B3
:100D300085E296E4089586E296E4089587E296E4D3
:100D4000089580E094E4089580E090E00895089587
:100D50009CE0799FF001112490E3899FE00DF11D43
:100D60001124E60FF11DEE0FFF1FE851FE4F859194
:100D7000949108958238910549F1B0F48133910539
:100D800009F459C048F48932910509F44FC08A32F8
:100D9000910509F455C008958533910509F441C0C2
:100DA0008933910599F00895833E910531F138F426
:100DB000803E910591F0823E9105A9F00895863E0E
:100DC000910501F1873E910539F1089520913E0486
:100DD00020FD3BC021FD39C0089580913E0480FF75
:100DE00034C089E341C080913E0482FF32C08091CB
:100DF0003E0484FF2CC080E037C080913E0482FD19
:100E000028C0F5CF80913E0483FF25C080913E0429
:100E100084FDF1CF87EE28C080913E0483FD1BC086
:100E2000F5CF80913E0485FF18C019C080913E0423
:100E300085FF15C012C080913E0486FF12C013C00A
:100E400080913E0486FF0FC00CC080EE0DC083EE83
:100E50000BC082EE09C086EE07C085E305C089E2BB
:100E600003C081E301C08AE290E008950895CF9322
:100E7000DF93EC01FB018281811102C081E040C05F
:100E80008091F501811125C0C531D047B9F70E9485
:100E9000360781E08093F5010E94C01E9093F40113
:100EA0008093F3011092E8011092EA011092E90197
:100EB0001092EC011092EB011092EE011092ED01F4
:100EC0001092F0011092EF011092F2011092F101D4
:100ED00016C08091F3019091F4010E94CC1E883CD1
:100EE000910560F68091E801E82FF0E0EE0FFF1F1A
:100EF000E751FE4FD183C0838F5F8093E80180E08C
:100F0000DF91CF910895089508950C948407CF93AD
:100F1000DF9385B7806885BF85B7806885BFA7E602
:100F2000B1E021E030E08D91E82FE295EF70F0E044
:100F300041A18F70B90102C0660F771F8A95E2F751
:100F4000CB01962F9095492341A392A1982B92A370
:100F500071E0AB36B70739F7ABE5B1E021E030E03F
:100F60008D91E82FE295EF70F0E041A18F70B9010B
:100F700002C0660F771F8A95E2F7CB01962F9095F6
:100F8000492341A392A1982B92A371E0A736B707FA
:100F900039F7E6E0F2E0CEEFD1E0A6EFB1E0119252
:100FA0001192199219921D921D9282E0EE30F8076B
:100FB000B1F7DF91CF910C9487034F925F927F92AC
:100FC0008F929F92AF92BF92CF92DF92EF92FF9259
:100FD0000F931F93CF93DF9307E611E0C6EFD1E0A5
:100FE000EE24E394F12C99249394BE01A880B98057
:100FF00019821882D8012D918D01E22FE295EF70B0
:10100000F0E081A12F70A70102C0440F551F2A955F
:10101000E2F79A01842B81A382A1842E80948821F7
:1010200082A350EA5A95F1F74BE5442E41E0542E45
:1010300080E090E0D2014D912D01C42EC2943FE09A
:10104000C322D12CD60190967C90C880D9804F7055
:10105000D70102C0AA0FBB1F4A95E2F77A2241F4DA
:10106000A701082E02C0440F551F0A94E2F702C0E0
:1010700040E050E04C295D295983488301968C302B
:101080009105C1F681A1882181A382A1822B82A32F
:101090002296FB0180819181A816B90641F09092B9
:1010A0000E020E94C01E9093100280930F02F1E086
:1010B0000B361F0709F099CF80910E02882351F15A
:1010C00080910F02909110020E94CC1E069710F1A1
:1010D0008091F6019091F7019093070280930602A8
:1010E0008091F8019091F901909309028093080290
:1010F0008091FA019091FB0190930B0280930A0278
:101100008091FC019091FD0190930D0280930C025F
:1011100010920E020E94730381E0DF91CF911F9124
:101120000F91FF90EF90DF90CF90BF90AF909F9086
:101130008F907F905F904F900895E82FF0E0EE0F32
:10114000FF1FEA5FFD4F80819181089508958F927E
:101150009F92BF92CF92DF92EF92FF920F931F93D5
:10116000CF93DF931F92CDB7DEB7B82E6A01790116
:1011700089010E5F1F4FC80169830E94B0354C0181
:10118000FC01B08269816183A701B60102960E94C9
:10119000D736C8010E948E270E94B0356C01A80185
:1011A000B4010E94BA278C017C01F5E0EF0EF11C1E
:1011B000C7010E94B0354C0180EFF4018083118299
:1011C00012821382E00FF11F87EF8483A801B6011A
:1011D000C40104960E94D736A401B70181E493E0CC
:1011E0000F90DF91CF911F910F91FF90EF90DF90C3
:1011F000CF90BF909F908F900C948624FA0190839B
:10120000818372836383089581E008950C940409B7
:101210000C940609EF92FF920F931F93CF93DF93E5
:10122000CDB7DEB7C55CD1090FB6F894DEBF0FBEEF
:10123000CDBF282F8B01CC53DF4F2883C45CD04017
:10124000CB53DF4F9883C55CD0400E940809CC5334
:10125000DF4F2881C45CD040CB53DF4F9881C55C01
:10126000D040882309F4DFC0F8014081423380F484
:10127000403308F0D8C0413109F4D5C018F44031EA
:1012800039F1CBC0403271F0413209F0C6C0CBC059
:10129000403408F4C2C0423408F4C5C0403809F0F4
:1012A000BCC0C1C0F8018181823039F0843081F442
:1012B000F80182810E942C1E0BC0F80182810E94DD
:1012C000231EF801628170E080E090E00E94851B9F
:1012D000F801818190E0FC013197EE30F10508F0D2
:1012E000A2C0E859FF4F0C94AA3520E030E040E05E
:1012F00050E061E090C082E090E00E94E036898397
:1013000021E030E0AE014F5F5F4F68E084C083E0D2
:1013100090E00E94E036898321E030E0AE014F5F2B
:101320005F4F62E078C06091F5027091F6028091A3
:10133000F7029091F802AE014F5F5F4F0E94FE08E6
:1013400024E030E0AE014F5F5F4F63E064C087E0B0
:1013500090E00E94E036898321E030E0AE014F5FEB
:101360005F4F69E058C086E090E00E94E0368983D4
:1013700021E030E0AE014F5F5F4F65E04CC020E000
:1013800030E040E050E066E046C00E94281E8983BD
:1013900021E030E0AE014F5F5F4F64E03CC084E08D
:1013A00089838CE08A8322E030E0AE014F5F5F4F9B
:1013B0006DE031C0F801A281A98384E08A838CE0CA
:1013C0008B83CE0101967E01F1E6EF0EF11C20E643
:1013D000A29FD0011124A81BB90BAC01BC016A0F5C
:1013E0007B1F20E030E068517E4FFB01E20FF31FCE
:1013F00005911491FC01E20FF31F138304832E5F08
:101400003F4F2831310589F748968E159F0531F7F2
:1014100023EC30E06EE081E104C0392FA80160E0E8
:1014200080E80E94A708CB53DF4F0FB6F894DEBFC9
:101430000FBECDBFDF91CF911F910F91FF90EF9025
:101440000895CF93DF93EC01FB01CE3180E7D807FD
:1014500049F482818823C1F081E0809311020E94C7
:10146000B00A10C0CF3180E7D80771F48281882399
:1014700059F01092110220E04BE760E081E493E024
:101480000E944F2480E05EC080911102882309F4FD
:1014900058C02081828191812B3049F4933081F5AD
:1014A000882309F44FC0809108018F5F0AC02A3059
:1014B00059F4933029F5882309F444C08091080138
:1014C000815080930801D7CF293051F49330C1F473
:1014D0008823B1F0809106019091070101960BC01D
:1014E000283071F4933061F4882351F08091060123
:1014F0009091070101979093070180930601BBCF5C
:1015000040910801420F20910601420F24E030E093
:10151000291B3109922F990F990F920F490F2FE72D
:1015200060E0882329F081E493E00E945F2404C0F6
:1015300081E493E00E946F2481E0CF3FD10510F455
:10154000A1CF81E0DF91CF910895109259020C94C0
:101550008A0C089581E0809359020C94A90A089599
:101560000895AF92BF92CF92DF92EF92FF920F93C6
:101570001F93CF93DF93CDB7DEB7A3970FB6F89441
:10158000DEBF0FBECDBF5C018B0186E1A81680E7F0
:10159000B80639F4FB0182818823B1F10E94F4106E
:1015A0000BC0F7E1AF16F0E7BF0641F4FB01828103
:1015B000882351F10E94FD1080E033C1F8E1AF169D
:1015C000F0E7BF0649F4FB0182818823B9F10E944C
:1015D000F0108111EFCFE2CFF9E1AF16F0E7BF06CF
:1015E00039F4FB0182818823B9F10E94AA0AE4CF71
:1015F000FAE1AF16F0E7BF0639F4FB0182818823D8
:1016000059F10E94A50AD8CFFBE1AF16F0E7BF065B
:1016100049F4F80182818823F9F0809159028111FF
:10162000F0CFE3CFFCE1AF16F0E7BF0639F4F801E5
:101630008281882389F00E9404110BC0FDE1AF165E
:10164000F0E7BF0649F4F8018281882329F00E945F
:101650000F110E94B00AB0CF80915902882309F47B
:10166000DFC0F0EEAF16B10489F4F801828188235F
:1016700009F45FC00E948A0C81E0809358021092A6
:101680005702109256021092150296CFF2EEAF1644
:10169000B10499F4F8018281882309F44AC00E94B8
:1016A0008A0C80915802882319F081E080935702B8
:1016B00010925802109256027FCFF3EEAF16B1048B
:1016C000B1F4F80182818823A1F180915702882327
:1016D00081F10E948A0C1092580281E08093560298
:1016E00010921402109213021092120265CFF2E5CA
:1016F000AF16B10459F4F8018281882309F491C02E
:101700008091090190910A010A970EC0F1E5AF1688
:10171000B10479F4F8018281882309F482C08091B0
:10172000090190910A010A9690930A018093090198
:1017300043CF20910D0183E2E8E3F1E0DE01119651
:1017400001900D928A95E1F7F8018081E1E0F0E0E7
:10175000EC0FFD1FE80FF11D80910B0190910C0122
:10176000E80FF91F6081772767FD7095620F711D83
:10177000882777FD8095982F0E94B83220E030E0CE
:1017800040E451E40E941D326B017C01F80181812B
:1017900064E070E0681B7109882777FD8095982FB9
:1017A0000E94B8329B01AC01C701B6010E94B5315D
:1017B0009B01AC0160E070E080E090E40E942B347B
:1017C00020E030E04CED50E40E94C8336B017C0116
:1017D000F80182818823D1F04FE050E0C701B601C3
:1017E0000E949010809158028823A1F080911502E8
:1017F00094E0899FF0011124EA5EFD4FC082D182FE
:10180000E282F3828F5F8093150204C0C701B601A4
:101810000E94BD0C81E0EFEFAE16B10410F4CCCE07
:1018200081E0A3960FB6F894DEBF0FBECDBFDF9167
:10183000CF911F910F91FF90EF90DF90CF90BF90CD
:10184000AF90089580915602882309F448C0809192
:10185000120290911302009779F40E94C01E909397
:101860001302809312028091140290E0009771F4A9
:101870008091150290E00AC00E94CC1E20910901BF
:1018800030910A012817390740F308950197FC01A8
:10189000EE0FFF1FEE0FFF1FEA5EFD4F60817181AB
:1018A000828193810E94BD0CE091140284E0E89F44
:1018B000F0011124EA5EFD4F608171818281938184
:1018C0004FE050E00E9490108091140290E0019649
:1018D0006091150270E00E9496358093140208957D
:1018E0000E94101E811102C00E94EC1D0E943A1E2F
:1018F000809332043E9A809171008D7F80937100B5
:1019000082E0809390008AE18093910081E080934F
:101910005C02089580915C02811102C00E94700CEB
:101920001092AC021092AB02809171008D7F809377
:101930007100809190008F738093900010926E02DE
:1019400010926D021092A5021092A6021092A702A8
:101950001092A8021092A4021092A302E3E8F2E00F
:10196000A3E7B2E011921192119211921D921D9271
:1019700082E0E33AF807B1F708958F929F92AF9211
:10198000BF92CF92DF92EF92FF920F931F93CF936C
:10199000DF936B017C0180916D02882309F497C06D
:1019A00080915C02811102C00E94700C03EA12E077
:1019B000C7E0D0E0A7019601D8019E918E917E915B
:1019C0006E918D010E941932811145C0FE01EE0F0A
:1019D000FF1FEE0FFF1FED57FD4F10821182128285
:1019E00013829E01220F331F2D583D4FD9011D92A6
:1019F0001C9240E050E060E070E06C5F7F4F4E5F13
:101A00005F4FC730D10551F121967F01E60EF71ED9
:101A1000D7018D909D90AD90BC9087010450110925
:101A2000D8018D929D92AD92BC921397D7011D92D1
:101A30001D921D921C9213977901E40EF51ED70199
:101A40000D911C91C7010297DC010D931C93D701E6
:101A50001D921C92D2CF219708F0ACCF8091AB029F
:101A60009091AC02019797FD05C09093AC028093D2
:101A7000AB0204C01092AC021092AB028091AB0298
:101A80009091AC022091A9023091AA02281739073F
:101A900024F01092AA021092A902892BC1F480911D
:101AA00071008D7F80937100809190008F7380937F
:101AB00090001092A5021092A6021092A702109216
:101AC000A8021092A4021092A30210926D02DF915C
:101AD000CF911F910F91FF90EF90DF90CF90BF902B
:101AE000AF909F908F9008951F920F920FB60F9214
:101AF00011244F925F926F927F928F929F92AF923A
:101B0000BF92CF92DF92EF92FF922F933F934F932A
:101B10005F936F937F938F939F93AF93BF93CF9375
:101B2000DF93EF93FF9380916D02882309F49AC1AC
:101B3000C091AB02D091AC021C161D060CF092C1F4
:101B400040905D0250905E0260905F027090600273
:101B500020E030E0A901C301B2010E94C43318168D
:101B60000CF065C0C130D10509F452C08091A902C2
:101B70009091AA02BE010E9496355C019093AA0240
:101B80008093A902C0906F02D0907002E090710221
:101B9000F090720220E030E040E85FE3C701B60158
:101BA0000E94B53160936F0270937002809371024E
:101BB00090937202F501EE0FFF1FEE0FFF1FED571E
:101BC000FD4FA301920160817181828193810E9406
:101BD0001D3220E030E040E05EE30E94C8339B010C
:101BE000AC01C701B6010E94C43318168CF4C501BC
:101BF0000196BE010E9496359093AA028093A90295
:101C000010926F0210927002109271021092720282
:101C1000E091A902F091AA02EE0FFF1FEE0FFF1F45
:101C2000ED57FD4F6081718182819381CFC0C0905B
:101C3000A502D090A602E090A702F090A80220E0B2
:101C400030E0A901C701B6010E941932219788230B
:101C500009F4A2C0FE01EE0FFF1FEE0FFF1FED57AC
:101C6000FD4F80809180A280B380A5019401C701BF
:101C7000B6010E94193287FF31C0A501940160E0CE
:101C800070E08CED93EC0E941D3220E030E040E4E7
:101C900051E40E941D3220E030E040E05FE30E940A
:101CA000C8339B01AC0160E070E080E090E40E94EA
:101CB0002B349B01AC01C501B4010E94C8339B01C8
:101CC000AC01C701B6010E94193287FF07C0A70106
:101CD000960160E070E08CED93E439C0A5019401B9
:101CE000C701B6010E94C43318160CF055C0A501F7
:101CF000940160E070E08CED93E40E941D3220E0DE
:101D000030E040E451E40E941D3220E030E040E049
:101D10005FE30E94C8339B01AC0160E070E080E0AB
:101D200090E40E942B349B01AC01C501B4010E94D8
:101D3000C8339B01AC01C701B6010E94C433181619
:101D40005CF5A701960160E070E08CED93EC0E94D9
:101D50001D3220E030E040E451E40E941D3220E0DA
:101D600030E040E05FE30E94C8339B01AC0160E0DB
:101D700070E080E090E40E942B349B01AC01C7012D
:101D8000B6010E94C8336093A5027093A6028093A7
:101D9000A7029093A80212C0CC0FDD1FCC0FDD1F4D
:101DA000CD57DD4F88819981AA81BB818093A5029F
:101DB0009093A602A093A702B093A8026091A502F7
:101DC0007091A6028091A7029091A80220915A02D8
:101DD00030915B022F3F4FEF340731F02F5F3F4FC1
:101DE00030935B0220935A020E941A116B017C010E
:101DF00020E034E244EF51E40E94193287FF08C02A
:101E000026EFC22E28E2D22E24EFE22E21E4F22E7B
:101E100020E030E040E051E4C701B6010E94C83341
:101E20009B01AC0160E074E284E79BE40E941D32F8
:101E30006B017C010E948A32709397006093960038
:101E400020910E0130910F0140911001509111012C
:101E5000C701B6010E94C8330E948A32709399006C
:101E60006093980080916E02882309F432C1C0907B
:101E70006902D0906A02E0906B02F0906C0220E060
:101E800030E0A901C701B6010E94C4331816D4F589
:101E900080915A0290915B028F3F2FEF920729F0B9
:101EA000019690935B0280935A02C701B6010E948B
:101EB0001A1120E030E040E051E40E94C8339B0159
:101EC000AC0160E074E284E79BE40E941D326B0188
:101ED0007C010E948A327093970060939600209153
:101EE0000E0130910F014091100150911101C70175
:101EF000B6010E94C8330E948A32709399006093A1
:101F0000980008C0109297001092960010929900C5
:101F10001092980060916302709164026F5F7F4F2E
:101F20007093640260936302209196003091970051
:101F300080E090E0232BF1F0C0919600D0919700C3
:101F40000E94B6326B017C01BE0180E090E00E94ED
:101F5000B6329B01AC01609165027091660280917E
:101F60006702909168020E941D3220E03FEF4FE728
:101F700057E410C00E94B6326B017C0120E030EEC5
:101F80004FEF54E4609165027091660280916702A0
:101F9000909168020E94C8339B01AC01C701B60151
:101FA0000E94C43387FD95C0209161022F5F20936A
:101FB000610230E080912E0490912F042817390798
:101FC000A0F080913904882319F0109261020DC0AD
:101FD000809171008D7F80937100809190008F734C
:101FE0008093900010926E027CC080916202C0913A
:101FF0006102811128C0C0903304D0903404E09075
:102000003504F090360420E030E0A901C701B601A4
:102010000E94C4331816BCF481E0809362021092CF
:10202000690210926A0210926B0210926C02C092C6
:102030006502D0926602E0926702F0926802C15097
:10204000C093610242C01092620210925B02109231
:102050005A02E0913004F091310448E0C49FE00D51
:10206000F11D112480819181A281B3818093690245
:1020700090936A02A0936B02B0936C0220E030E070
:1020800040E85EE364817581868197810E94C83350
:102090006B017C016091120170E080E090E00E9491
:1020A000B63220E030E048EC52E40E941D329B0141
:1020B000AC01C701B6010E94C833609365027093FA
:1020C00066028093670290936802109264021092F5
:1020D00063028091320480FD04C010926E0210925F
:1020E0006D02FF91EF91DF91CF91BF91AF919F91E1
:1020F0008F917F916F915F914F913F912F91FF90C1
:10210000EF90DF90CF90BF90AF909F908F907F9097
:102110006F905F904F900F900FBE0F901F9018958B
:10212000CF92DF92EF92FF92CF93DF936B017C010E
:10213000EA0180915C02811102C00E94700C8091C2
:10214000320480FF46C08091AB029091AC020897A8
:102150000CF03FC0809171008D7F80937100809161
:102160006E0281110E948A0C81E080936D021092B0
:102170005B0210925A0220E030E0A901C701B601CB
:102180000E94C4331816DCF48091AB029091AC022B
:10219000FC01EE0FFF1FEE0FFF1FED57FD4FC0823A
:1021A000D182E282F382FC01EE0FFF1FED58FD4F5A
:1021B000D183C08301969093AC028093AB0280914F
:1021C000710082608093710080919000806880939C
:1021D0009000DF91CF91FF90EF90DF90CF90089526
:1021E00080913204817008958091320481608093DF
:1021F00032040E943E1E0C94AF0A809132048E7FFE
:10220000809332040C943E1E8091AD0290E00196C2
:1022100066E070E00E9496358093AD02089580914B
:10222000AD0290E0019766E070E00E9496358093E1
:10223000AD0208958F929F92AF92BF92CF92DF929C
:10224000EF92FF92CF93DF936B017C01C0915A0212
:10225000D0915B02BE0180E090E00E94B6324B015B
:102260005C01A701960160E070E08CE594E40E94B7
:102270001D329B01AC01C501B4010E94C8330E940C
:102280008A329B014091AD02433009F473C028F4B7
:10229000442351F04130E9F02DC1443009F4A0C08D
:1022A000453009F4E0C026C180E090E0A0E0BFE343
:1022B00080930E0190930F01A0931001B093110130
:1022C00010925D0210925E0210925F021092600204
:1022D00011C110925D0210925E0210925F02109284
:1022E00060026431710540F46A30710560F520E0E8
:1022F00030E040E85EE32BC0693C710508F0AAC0FD
:1023000080E090E00E94B63220E030E040EA51E404
:102310000E94B43120E030E044E353E40E941D32D7
:102320009B01AC010E94C83320E030E040E05EE356
:102330000E94C8339B01AC0160E070E080E09EE346
:102340000E94B43144C020E030E040E05FE3C701C8
:10235000B6010E94C8336B017C0180E090E0A0E0F0
:10236000BEE380930E0190930F01A0931001B093F0
:102370001101C0C010925D0210925E0210925F02C5
:10238000109260024AE0469F9001479F300D112451
:10239000C90168EB7BE00E948235BC016C5D754031
:1023A00077FF03C0719561957109882777FD809546
:1023B000982F0E94B8322EE333EC4EE259E30E948C
:1023C000C83320E030E040EC5EE30E94B53160931A
:1023D0000E0170930F0180931001909311018AC038
:1023E00010925D0210925E0210925F0210926002E3
:1023F000CE0183709927892BE1F0BE0161707727A8
:1024000080E090E00E94B63220E030E040E05EE301
:102410000E94C83320E030E040E45FE30E94B53121
:1024200060930E0170930F0180931001909311013E
:102430000CC080E090E0A0E0BFE380930E01909399
:102440000F01A0931001B0931101C770DD27CD2BB0
:1024500009F050C010920E0110920F01109210015D
:102460001092110147C010925D0210925E0210920C
:102470005F0210926002812C912CA12C9FE3B92E57
:1024800080920E0190920F01A0921001B092110162
:102490002739310578F180E090E00E94B63220E0E3
:1024A00030E047E153E40E94B43120E030E04AE7F5
:1024B00054E40E941D3220E030E048E452E40E94DF
:1024C000C83320E030E040EA51E40E94FA320E9432
:1024D0008532FB01EE0FFF1FEE0FFF1FE559FE4F88
:1024E0002081318142815381C701B6010E94C833E6
:1024F0006B017C01C701B601DF91CF91FF90EF9096
:10250000DF90CF90BF90AF909F908F900895909361
:10251000B3028093B2020895E091B202F091B30247
:10252000309721F00190F081E02D099480E008952A
:10253000E091B202F091B302309721F00280F38172
:10254000E02D09940895E091B202F091B302309722
:1025500021F00480F581E02D099408952091B002C6
:102560003091B1028217930771F09093B10280937A
:10257000B002E091B202F091B302309721F00680F0
:10258000F781E02D099408952091AE023091AF02B9
:102590008217930771F09093AF028093AE02E0919F
:1025A000B202F091B302309721F00084F185E02D62
:1025B0000994089508950C94DA120E94B71E0E949F
:1025C00087070E943D1F0C9482235F926F927F9237
:1025D0008F929F92AF92BF92CF92DF92EF92FF9233
:1025E0000F931F93CF93DF93CDB7DEB72A970FB624
:1025F000F894DEBF0FBECDBF0E94DD0795EBC92E5C
:1026000092E0D92E00E010E0AA24A394B12C502E21
:10261000802F0E949D083C01F601E190F1906F012E
:10262000E826F926E114F104B1F40F5F1F4F0430DE
:10263000110569F78FEF89838A831B820E94C01E70
:102640008160782F9D838C8349815A816B818D8134
:102650000E949E133AC080910A0381FD0E94A60841
:1026600020E030E04501022E02C0880C991C0A943B
:10267000E2F7C4018E219F21892B09F12E835F820D
:102680006820792081E0672809F480E088870E942B
:10269000C01E8160782F9A8789874E815F81688507
:1026A0008A850E949E13F801EE0FFF1FEB54FD4F29
:1026B00080819181882599259183808306C02F5F31
:1026C0003F4F2C30310571F6B0CF0E94CF201091D2
:1026D000B4020E948C121817D9F00E948C128093B9
:1026E000B4022A960FB6F894DEBF0FBECDBFDF91BD
:1026F000CF911F910F91FF90EF90DF90CF90BF90FF
:10270000AF909F908F907F906F905F900C94BC03E0
:102710002A960FB6F894DEBF0FBECDBFDF91CF91E2
:102720001F910F91FF90EF90DF90CF90BF90AF90EF
:102730009F908F907F906F905F900895CF93DF93DD
:10274000CDB7DEB72B970FB6F894DEBF0FBECDBF67
:102750004F83588769877A878B87DE01119686E0D9
:10276000FD0111928A95E9F785E0FE013796019007
:102770000D928A95E1F749815A816B817C818D8127
:102780009E810E94551A2B960FB6F894DEBF0FBE9D
:10279000CDBFDF91CF910895CF93C82F882309F43F
:1027A000CCC0823859F40E948C1281FDC6C089E3E6
:1027B0000E94321D0E94BD1D89E30CC0833879F44C
:1027C0000E948C1280FDB9C083E50E94321D0E94D8
:1027D000BD1D83E50E94531DCF910C94BD1D84380F
:1027E00059F40E948C1282FDA8C087E40E94321D19
:1027F0000E94BD1D87E4EECF8CEF8C0F813A48F428
:102800008C2F0E94EE22811198C08C2F0E94321DC5
:10281000E3CF80E28C0F883048F4C77081E001C0BC
:10282000880FCA95EAF70E94741DD6CF8BE58C0FEE
:10283000833078F4C53A29F0C63A31F482E890E062
:1028400005C081E890E002C083E890E0CF910C944D
:10285000AE1288E58C0F853108F06FC0C83A61F17F
:10286000C93A69F1CA3A71F1CB3A79F1CC3A81F1BE
:10287000CB3B89F1CC3B91F1CD3A99F1C03BA1F131
:10288000CE3AA9F1CF3AB1F1C13BB9F1C23BC1F1A6
:10289000C33BC9F1C43BD1F1C53BD9F1C63BE1F122
:1028A000C73BE9F1C83BF1F1C93BF9F1CA3B09F07B
:1028B0003FC08AE292E03EC082EE90E03BC089EEEB
:1028C00090E038C08AEE90E035C085EB90E032C0F1
:1028D00086EB90E02FC083EB90E02CC084EB90E07F
:1028E00029C087EB90E026C08CEC90E023C08DECF3
:1028F00090E020C083E891E01DC08AE891E01AC012
:1029000082E991E017C084E991E014C081E292E08D
:1029100011C083E292E00EC084E292E00BC085E237
:1029200092E008C086E292E005C087E292E002C031
:1029300080E090E0CF910C94C412CF910895882349
:1029400009F44BC0823859F40E948C1281FF45C0B3
:1029500089E30E94321D0E94BD1D89E30CC08338AB
:1029600071F40E948C1280FF38C083E50E94321DF2
:102970000E94BD1D83E50E94531D0C94BD1D84382B
:1029800059F40E948C1282FF28C087E40E94321DF5
:102990000E94BD1D87E4EFCF9CEF980F913A58F34A
:1029A00090E2980F983050F4877091E001C0990F31
:1029B0008A95EAF7892F0E947A1DDFCF9BE5980F51
:1029C000933020F480E090E00C94AE12885A853168
:1029D00020F480E090E00C94C4120895882321F044
:1029E0000E94741D0C94BD1D0895882321F00E943F
:1029F0007A1D0C94BD1D08958F929F92AF92BF9245
:102A0000CF92DF92EF92FF920F931F93CF93DF93BA
:102A10001F92CDB7DEB74C01A62E472FFC01E580F3
:102A2000E2948FE0E822F280FF2021F079830E9477
:102A3000911D498149830E942B1D4981882381F082
:102A4000FF2071F080E28A0D883050F082E00E9411
:102A5000141D0E942B1DBB24B394B826498101C0CC
:102A6000B12CE42FE295EF70F0E0EA58FF4F0C94A0
:102A7000AA35842F807F142F1F70882311F01295A0
:102A8000107FFF2099F0112309F49AC180E28A0D8A
:102A9000883010F0A11004C0812F0E94741D03C063
:102AA000812F0E94841D0E94BD1D8AC18A2D0E9413
:102AB0009F14112309F4C1C180E28A0D883010F0FF
:102AC000A11004C0812F0E947A1D03C0812F0E9493
:102AD0008A1D0E94BD1DB1C1242F207F842F8F70BD
:102AE000203211F08295807FAA2021F0F1E0AF160C
:102AF000B1F021C0FF2041F0EE2039F191E0E91260
:102B000024C00E94A41D99C1EE2021F0E1E0EE1640
:102B100009F493C189830E94A71D89810BC1FF20FD
:102B200029F0F5E0FE1508F488C10FC094E09E1569
:102B300008F483C1FFC0FF2059F0EE2031F0F4010A
:102B4000958190FF3DC19F7095830E94EE1475C1E1
:102B5000EE2009F4EFC03AC1242F26952695237064
:102B600030E02115310521F02130310561F065C1DA
:102B7000FF2021F08A2D942F937002C080E090E016
:102B80000E94AE125AC1FF2021F08A2D942F93701B
:102B900002C080E090E00E94C4124FC18A2DFF2045
:102BA00019F00E94D71F02C00E943F200E94C4203B
:102BB00044C1842F837009F04EC0F1103EC12A2D0C
:102BC000229526952770220F220F8A2D8F70C82EEE
:102BD000D12CE12CF12C022E04C0CC0CDD1CEE1CFF
:102BE000FF1C0A94D2F7A4FE10C06FE070E080E0F2
:102BF00090E004C0660F771F881F991F2A95D2F7AF
:102C0000609570958095909503C060E070E0CB0171
:102C1000242F26952695237030E02230310569F067
:102C20002330310589F06C297D298E299F29213097
:102C3000310571F00E94A91B00C16C297D298E29E4
:102C40009F290E94C31BF9C00E94A91BC701B6019E
:102C50000E948F1BF2C0FF2019F0842F817001C0E9
:102C60008695882309F4E9C02A2D22952695277098
:102C7000220F220F8A2D8F70C82ED12CE12CF12C1F
:102C8000022E04C0CC0CDD1CEE1CFF1C0A94D2F7F3
:102C9000A4FE10C06FE070E080E090E004C0660F1A
:102CA000771F881F991F2A95D2F760957095809598
:102CB000909503C060E070E0CB01242F2695269507
:102CC000237030E02230310569F02330310589F07E
:102CD0006C297D298E299F292130310571F00E94B0
:102CE0007D1CABC06C297D298E299F290E94971CD1
:102CF000A4C00E947D1CC701B6010E94631C9DC038
:102D00000A2D10E0F801E05EF109E531F10508F067
:102D100053C0EA57FF4F0C94AA351A2D1F70842F09
:102D20008F71FF2021F00E94FC1B812F0ECF0E948B
:102D30001D1C812F0E94F51480C0FF2049F0F4E093
:102D4000FE1508F47AC0842F8F710E94421C75C052
:102D500085E08E1508F471C0F6CFFF2039F0842F7E
:102D60008F710E94FC1B69C0FF20C9F3842F8F71F3
:102D70000E941D1C62C0FF2029F0842F8F710E94C9
:102D8000E71B5BC00E94DD1B58C0FF2051F0142FD1
:102D90001F71812F0E94FC1B63E0812F0E940B1D7D
:102DA0004CC081E00E94141D91E09E1508F045C0C2
:102DB00082E00E94141D41C0FF2031F0EE2079F224
:102DC0008A2D0E94CC1339C0EE2081F28A2D0E94F8
:102DD0009F1433C04F706A2DC4010E94A4060E9444
:102DE000021B2BC0F11029C0942F9F70492F50E077
:102DF00042305105B9F04CF44115510581F0413094
:102E00005105D9F40E94AF2318C04330510569F031
:102E10004430510591F48A2D0E9403240EC00E9473
:102E200093230BC00E94CB2308C00E94DE2305C061
:102E30004F706A2DC4010E94A706BB20F1F00E94CA
:102E4000071D80FD1AC0F40112820E94011D0E941C
:102E5000FC1BC4010E944B170E94011D0F90DF91C3
:102E6000CF911F910F91FF90EF90DF90CF90BF9087
:102E7000AF909F908F900C941D1C0F90DF91CF917D
:102E80001F910F91FF90EF90DF90CF90BF90AF9088
:102E90009F908F9008950F931F93CF93DF93EC0132
:102EA000288139818B819C81892B31F03F3F11F042
:102EB00080E003C02F3FE1F781E0811113C0CE0114
:102EC0000E94D003882371F0688179818A810E94F1
:102ED000FD1C8C010E94B11C0E94841BB801CE0114
:102EE0000E94FC14DF91CF911F910F9108950E94D1
:102EF000911D0E94A11D0E94661D0E94BD1D0E9481
:102F000070210E94C42080E090E00E94AE1280E018
:102F100090E00C94C4120E94811D0C9477170E94BB
:102F2000F21CE92FE295EF70F0E03297EE30F105F8
:102F3000B8F4E556FF4F0C94AA35803F59F018F4C9
:102F4000803E70F407C0843F59F404C0803E10F006
:102F5000813F31F481E0089593FB882780F908953B
:102F600080E00895CF93DF9300D000D01F92CDB7BB
:102F7000DEB70F900F900F900F900F90DF91CF91D1
:102F80000895CF93DF9300D000D000D0CDB7DEB747
:102F900026960FB6F894DEBF0FBECDBFDF91CF915E
:102FA00008951F93CF93DF93C091BD0216E08091E7
:102FB000BE02C81799F0D0E01C9FF0011D9FF00DD4
:102FC0001124E154FD4F40815181628173818481DC
:102FD00095810E94C1172196C770E9CFDF91CF91EB
:102FE0001F9108954091EF025091F0026091F1021B
:102FF0007091F2028091F3029091F4020C94C11747
:10300000CF938091F40282958F7009F05FC0809118
:10301000F102882309F45AC02091BD02A091BE029A
:103020006091EF027091F0028091F2029091F302B0
:1030300031E06F3F09F030E0B32FC6E02A1709F402
:1030400045C0009721F07F3F21F44B2F03C041E0A2
:1030500001C040E030E040FD35C0C29FF001C39F99
:10306000F00D1124E154FD4F418174132BC04081B8
:10307000641328C04281411125C0438154814817FF
:10308000590710F441505109481B590B483C510550
:10309000C8F48091F4028F7080618093F40286E01E
:1030A000829FF001839FF00D1124EC53FD4F80812E
:1030B0008F70806180838FEE92E00E944B17CF91DA
:1030C0000C94D1172F5F3F4F2770B8CFCF91089541
:1030D000CF92DF92EF92FF920F931F93CF93DF93E4
:1030E000CDB7DEB762970FB6F894DEBF0FBECDBF87
:1030F0008C0185E0F801DE011D9601900D928A9504
:10310000E1F7D8014C9111965C91119712966C9150
:1031100012971396ED90FC9014977091EF02E09146
:10312000F0022091F2023091F3022115310531F0C5
:10313000EF3F31F481E07F3F19F403C081E001C02B
:1031400080E0B82FB170CB2E80FD6CC1D090F10221
:10315000DD2009F4F5C0F091F402E216F30638F030
:10316000C701821B930B883C910548F09BC02095BA
:1031700030952E0D3F1D283C310508F093C08F2F50
:10318000807F09F052C0E51314C0741312C0D62E0C
:1031900061110FC0FF70F061F093F4020E94F2170A
:1031A0008FEE92E00E944B178091F402F801858324
:1031B0006CC1EF2831F05F3F31F481E04F3F19F4EB
:1031C00003C081E001C080E080FD03C081E086276C
:1031D00001C080E0F82FF170FF2E80FF1CC08091AD
:1031E000BD022091BE0236E0821709F428C190E0AA
:1031F000389FF001399FF00D1124E154FD4F71818A
:10320000571306C07081471303C07281671303C050
:1032100001968770E9CFD62E662309F436C18091D6
:10322000F40281608093F40253C0E51308C0741364
:1032300006C0611104C0D8011596FC93AEC04D873D
:103240005E878D859E856A8B0E948F176A89882389
:1032500029F1D62E662311F12091F402822F829556
:103260008F7090E002970CF460C08091EF02909113
:10327000F00298878F831986FB86EA862C87CE0119
:10328000079651C0E51731F14D875E878D859E8584
:103290006A8B0E948F176A8981112EC0C8010E9413
:1032A0004B17A4C08F2F807F69F77E2DF98AE88A9B
:1032B00089890E94B2178FEE92E00E944B17EFEEC1
:1032C000F2E086E0DF011D928A95E9F70E94F2178D
:1032D000D12CDBC07413D8CF6111D6CFD80115968D
:1032E000FC93C8010E944B17EFEEF2E086E0DF018D
:1032F0001D928A95E9F7C9C0D62E662379F22091EE
:10330000F402822F82958F7090E0029774F0809182
:10331000EF029091F0029A8389831B82FD82EC82F6
:103320002E83CE0101960E944B1786E0F801AFEE86
:10333000B2E001900D928A95E1F70E9400186FC0EB
:10334000E216F30628F0C701821B930B9C0104C010
:10335000209530952E0D3F1D283C310508F052C0B8
:10336000D62E662309F49ACFE5132CC074132AC015
:103370008091F40280FD1DC0982F92959F70C9F036
:10338000D80115968C9315979F3039F09F5F9295D1
:10339000907F8F70892B15968C93C8010E944B17D4
:1033A00086E0F801AFEEB2E001900D928A95E1F768
:1033B00036C086E0F801AFEEB2E001900D928A953A
:1033C000E1F763C04D875E878D859E850E948F17CC
:1033D000882379F086E0F801AFEEB2E001900D921B
:1033E0008A95E1F70E9400180E94F217DD24D39419
:1033F0004CC08091F40281608093F402C8010E9465
:103400004B1743C07E2DF98AE88A89890E94B2173A
:10341000EFEEF2E086E0DF011D928A95E9F70E9467
:10342000F21733C0662309F439CF4D875E878D8547
:103430009E850E948F17882309F430CFCBCF4D870C
:103440005E878D859E850E94F21C292F22952F7004
:1034500030E0223031052CF49F7041F0811106C01C
:103460000CC0243031052CF49F7049F4805E883004
:1034700020F0C8010E944B17CF2CDC2C06C0D801CD
:1034800015969C91907F91F7F8CF8D2D62960FB68F
:10349000F894DEBF0FBECDBFDF91CF911F910F918A
:1034A000FF90EF90DF90CF9008951F93CF93DF931D
:1034B000CDB7DEB72C970FB6F894DEBF0FBECDBFE9
:1034C0004F83588769877A878B879C87CE010796B9
:1034D0000E9468188823C1F02F8138858A859B85D2
:1034E000892B31F03F3F11F080E003C02F3FE1F71F
:1034F00081E0811147C04F81588569857A858B8528
:103500009C850E94C1173EC086E0FE013796DE0111
:10351000119601900D928A95E1F7FF81E8854A8521
:103520005B854115510531F0EF3F31F481E0FF3FFC
:1035300019F403C081E001C080E080FD23C0209128
:10354000BE0230E0C9010196877099276091BD02E3
:1035500070E086179707F1F1F983EA835D834C8366
:1035600096E0929FD001939FB00D1124A154BD4FBE
:10357000FE01319601900D929A95E1F78093BE027B
:103580000E94D11716E08091BD029091BE0289176A
:1035900079F1189FC001112481549D4F0E94681831
:1035A000882331F1E091BD021E9FF0011124E15406
:1035B000FD4F4081518162817381848195810E9498
:1035C000C1178091BD0290E0019687709927809382
:1035D000BD02D9CF0E948B171092BE021092BD027D
:1035E000EFEEF2E086E0DF011D928A95E9F7CACF9F
:1035F0002C960FB6F894DEBF0FBECDBFDF91CF91F2
:103600001F910895EF92FF920F931F93CF93DF9333
:103610009C01009709F471C0F12CEE24E394E901B8
:103620002196F9018491843740F4843008F056C023
:10363000813081F0823021F160C0853709F449C0C2
:10364000C0F19CE7980F903708F057C08F770E9421
:103650009F1446C089010E5F1F4FFE01849190E2C6
:10366000980F983050F48770FE2D01C0FF0F8A9597
:10367000EAF78F2F0E94941D15C00E94CC1314C02E
:1036800089010E5F1F4FFE01849190E2980F9830E0
:1036900068F48770FE2D01C0FF0F8A95EAF78F2F1F
:1036A0000E949A1D0E94BD1DE8011AC00E949F142D
:1036B000FBCF2E5F3F4FFE01C491CC2341F08FE939
:1036C0009FE00197F1F700C00000C150F6CFE9017B
:1036D00007C0FE01F490E901229602C00E94CC13BB
:1036E0008F2D882341F0EFE9FFE03197F1F700C01B
:1036F00000008150F6CF9E0192CFDF91CF911F91B4
:103700000F91FF90EF90089508956093F9027093E0
:10371000FA028093FB029093FC020C9477170F93AC
:103720001F930091F9021091FA022091FB0230914F
:10373000FC02062B172B282B392B0093F902109330
:10374000FA022093FB023093FC021F910F910C941C
:1037500077170F931F930091F9021091FA022091AD
:10376000FB023091FC020623172328233923009300
:10377000F9021093FA022093FB023093FC021F918E
:103780000F910C9477170F931F930091F9021091EA
:10379000FA022091FB023091FC0206271727282706
:1037A00039270093F9021093FA022093FB02309319
:1037B000FC021F910F910C9477171092F502109252
:1037C000F6021092F7021092F8020C94771741E07B
:1037D00050E060E070E004C0440F551F661F771F83
:1037E0008A95D2F74093F5025093F6026093F70260
:1037F0007093F8020C94771741E050E060E070E0BD
:1038000004C0440F551F661F771F8A95D2F7809119
:10381000F5029091F602A091F702B091F802842B84
:10382000952BA62BB72B8093F5029093F602A093CD
:10383000F702B093F8020C94771741E050E060E093
:1038400070E004C0440F551F661F771F8A95D2F79A
:1038500040955095609570958091F5029091F60293
:10386000A091F702B091F80284239523A623B723F1
:103870008093F5029093F602A093F702B093F802BA
:103880000C94771741E050E060E070E004C0440F12
:10389000551F661F771F8A95D2F78091F502909188
:1038A000F602A091F702B091F80284279527A62787
:1038B000B7278093F5029093F602A093F702B09396
:1038C000F8020C9477170F931F930091F502109153
:1038D000F6022091F7023091F802062B172B282BC5
:1038E000392B0093F5021093F6022093F7023093E0
:1038F000F8021F910F910C9477170F931F9300916B
:10390000F5021091F6022091F7023091F802062399
:103910001723282339230093F5021093F6022093EE
:10392000F7023093F8021F910F910C9477170F93C1
:103930001F930091F5021091F6022091F702309149
:10394000F80206271727282739270093F502109336
:10395000F6022093F7023093F8021F910F910C9416
:1039600077170895CF92DF92EF92FF920F931F93F4
:10397000CF93DF93EC01C090F902D090FA02E0906F
:10398000FB02F090FC028091F5029091F602A0916A
:10399000F702B091F802C82AD92AEA2AFB2A0FE1D5
:1039A00010E0B701A601002E04C0769567955795E3
:1039B00047950A94D2F740FD05C00150110988F7D8
:1039C00080E007C0BE01802F0E94F5040197A9F393
:1039D000802FDF91CF911F910F91FF90EF90DF909B
:1039E000CF900895CF93DF93EC010E94B21CBE01EB
:1039F0000E94F504DF91CF910895CB010E94F21C43
:103A000008958091FD02859585958595089580910D
:103A1000FD028770089598E0899F90011124622B20
:103A20006093FD020C94FC1B4091FD028095842361
:103A30008093FD02982F977069F450E0282F332768
:103A400027FD30954217530729F085958595859573
:103A50000C941D1C08959091FD02977081E009F46B
:103A600080E00895409113015091140120E030E06E
:103A70009FEFFA01E20FF31F6281681799F09F3FF1
:103A800019F4611101C0922F2F5F3F4F263031058D
:103A900081F79F3F39F0FA01E90FF11D97FDFA9583
:103AA000828308950895409113015091140120E0FC
:103AB00030E0FA01E20FF31F9281981301C01282E5
:103AC0002F5F3F4F26303105A1F7089581E090E048
:103AD000E0911301F0911401E80FF91F1082019693
:103AE00088309105A9F7089590910903982B909338
:103AF00009030895809590910903982390930903F1
:103B0000089510920903089590910803982B9093BB
:103B100008030895809590910803982390930803D3
:103B2000089510920803089590910703982B90939D
:103B300007030895809590910703982390930703B6
:103B400008951092070308958093FE02089510923D
:103B5000FE020895409113015091140120E030E0DD
:103B600080E0FA01E20FF31F918191118F5F2F5FC7
:103B70003F4F27303105A9F70895E0911301F091E7
:103B80001401809109038083E0911301F0911401E5
:103B9000808190910803892B8083E0911301F0913B
:103BA0001401808190910703892B80839091FE02FC
:103BB000992361F0E0911301F09114018081892B28
:103BC00080830E94AA1D81111092FE028091130130
:103BD000909114010C9498126DEE7EEF80E090E0CD
:103BE0000E94003760E082E090E00E94EE3660E0E4
:103BF00083E090E00E94EE3660E084E090E00E9476
:103C0000EE3660E085E090E00E94EE3660E086E00F
:103C100090E00E94EE366FEF87E090E00C94EE3675
:103C200080E090E00E94E83621E08D3E9E4F09F052
:103C300020E0822F089582E090E00C94E03683E04B
:103C400090E00C94E036682F83E090E00C94EE3620
:103C500084E090E00C94E036682F84E090E00C94CF
:103C6000EE3686E090E00C94E036682F86E090E037
:103C70000C94EE3687E090E00C94E036682F87E0F5
:103C800090E00C94EE3680914504843039F1109226
:103C90000B0320E488E190E00FB6F894A895809398
:103CA00060000FBE2093600080E00E948B0380E0E4
:103CB0000E94BC0383B7817F846083BF83B7816028
:103CC00083BF7894889583B78E7F83BF88E10FB6D2
:103CD000F89480936000109260000FBE08950895DC
:103CE0000895CF930E946F1E0E94DD070E94701EF0
:103CF000C0E08C2F0E949D08892B29F4CF5FC4302F
:103D0000C1F780E001C081E0CF9108950E948B1738
:103D10000E9482230E948C120C94BC031F920F926B
:103D20000FB60F9211248F939F93AF93BF938091FF
:103D30000B03811113C080913A0490913B04A09130
:103D40003C04B0913D044196A11DB11D80933A04FD
:103D500090933B04A0933C04B0933D04BF91AF917A
:103D60009F918F910F900FBE0F901F90189582E03A
:103D700084BD93E095BD9AEF97BD80936E00089542
:103D80002FB7F89480913A0490913B04A0913C04A1
:103D9000B0913D042FBF0895CF92DF92EF92FF9232
:103DA0000F931F932FB7F89440913A0450913B041E
:103DB00060913C0470913D042FBF6A017B01EE24A9
:103DC000FF248C0120E030E0C016D106E206F306A5
:103DD00010F441505109481B590BCA011F910F9112
:103DE000FF90EF90DF90CF9008951F920F920FB643
:103DF0000F9211248F939F93AF93BF9380913A04B6
:103E000090913B04A0913C04B0913D040196A11D0A
:103E1000B11D80933A0490933B04A0933C04B0936B
:103E20003D04BF91AF919F918F910F900FBE0F9066
:103E30001F9018950E94BF2EF8942FEF87EA91E605
:103E4000215080409040E1F700C0000087E090EBF7
:103E5000DC018093520490935304A0935404B093D4
:103E600055042CE088E190E00FB6F894A895809373
:103E700060000FBE20936000FFCF0E94101E8111D2
:103E800002C00E94EC1D0E941B1E80930A030E9428
:103E9000281E90E090933F0480933E040E941F1ED2
:103EA000682F70E080E090E00C94851B80910E03F9
:103EB00080FF0BC06091180185E0689FB00111245C
:103EC00075956795759567952AC081FF09C06091C2
:103ED000180185E0689FB0011124759567951FC092
:103EE00082FF07C06091180185E0689FB00111242E
:103EF00016C040910F034423C9F060911701461783
:103F000088F72091180185E0289F90011124429F95
:103F1000C001439F900D112470E00E9496356038D7
:103F2000710540F46115710539F002C065E070E07B
:103F3000862F08958FE7089581E0089580910E03FC
:103F400080FF08C06091160170E0759567957595C2
:103F5000679521C081FF06C06091160170E07595DC
:103F6000679519C082FF04C06091160170E010C00F
:103F700080910F038823C1F0609115018617A0F787
:103F800090911601989FC001112470E00E9496350F
:103F90006038710528F46115710521F0862F0895A8
:103FA0008FE7089581E0089561E070E0F4CF803FED
:103FB00021F40E94561F819504C0813F29F40E947C
:103FC000561F809312030895823F21F40E94561FCA
:103FD000819504C0833F29F40E94561F80931103EA
:103FE0000895893F19F40E949E1F05C08A3F31F44D
:103FF0000E949E1F81958093130308958B3F21F4A7
:104000000E949E1F819504C08C3F29F40E949E1F30
:10401000809314030895843F21F4809110038160FC
:1040200017C0853F21F480911003826011C0863F44
:1040300021F48091100384600BC0873F21F48091AC
:104040001003886005C0883F31F4809110038061BF
:104050008093100308958D3F21F480910E038160B9
:104060000BC08E3F21F480910E03826005C08F3F0C
:1040700029F480910E03846080930E030895803F9D
:1040800039F48091120387FF6CC01092120369C04B
:10409000813F29F4809112031816BCF362C09091FD
:1040A0001103823F29F497FF5CC01092110359C09D
:1040B000833F19F41916CCF354C0893F41F4809121
:1040C000130318160CF04DC0109213034AC08A3F18
:1040D00029F48091130387FF44C0F6CF8B3F39F456
:1040E0008091140387FF3DC0109214033AC08C3FA7
:1040F00029F4809114031816BCF333C0843F21F4D3
:10410000809110038E7F17C0853F21F480911003AA
:104110008D7F11C0863F21F4809110038B7F0BC0EF
:10412000873F21F480911003877F05C0883F31F4D9
:10413000809110038F7E8093100313C08D3F21F474
:1041400080910E038E7F0BC08E3F21F480910E0371
:104150008D7F05C08F3F29F480910E038B7F809364
:104160000E038091110381110EC080911203811101
:104170000AC080911303811106C08091140381113C
:1041800002C010920F03089580E193E00E94A312F1
:104190000E94C01E90930D0380930C0308951F93FB
:1041A000CF93DF9380910C0390910D030E94CC1E5E
:1041B00040910F03442321F02091190130E006C003
:1041C00020911A015AE0259F90011124821793072C
:1041D00008F482C08091110310911203D09113034F
:1041E000C0911403811107C0111105C0D11103C082
:1041F000CC2309F471C04F3F19F04F5F40930F0378
:10420000181624F40E94561F809311038091110305
:1042100087FF05C00E94561F8195809311031116D8
:1042200024F40E94561F809312038091120387FF8B
:1042300005C00E94561F819580931203609111035F
:10424000662339F110911203112319F1772767FDC5
:104250007095872F972F0E94B83223E333E343E30F
:104260005FE30E94C8330E94853260931103612F7F
:10427000772767FD7095872F972F0E94B83223E329
:1042800033E343E35FE30E94C8330E9485326093C7
:1042900012031D1624F40E949E1F80931303809125
:1042A000130387FF05C00E949E1F8195809313030F
:1042B0001C1624F40E949E1F809314038091140303
:1042C00087FF05C00E949E1F819580931403DF9194
:1042D000CF911F910C94C420DF91CF911F9108952D
:1042E000E0E1F3E085E0DF011D928A95E9F71092A5
:1042F0000F0310920E030895833081F128F481306A
:1043000059F08230D1F00895853009F449C0B8F1F0
:10431000863009F456C0089520911A01862F90E046
:10432000820F911D8F3F910520F4620F60931A0157
:1043300008958FEF80931A01089520911901862F17
:1043400090E0820F911D8F3F910520F4620F6093E2
:10435000190108958FEF8093190108952091180194
:10436000862F90E0820F911D8F3F910520F4620F00
:104370006093180108958FEF80931801089520919C
:104380001701862F90E0820F911D8F3F910520F439
:10439000620F6093170108958FEF809317010895BE
:1043A00020911601862F90E0820F911D8F3F91057D
:1043B00020F4620F6093160108958FEF8093160129
:1043C000089520911501862F90E0820F911D8F3F57
:1043D000910520F4620F6093150108958FEF80938B
:1043E00015010895833011F128F4813049F08230AD
:1043F00091F00895853081F120F18630C1F1089562
:1044000080911A01681720F4861B80931A01089581
:1044100010921A01089580911901681720F4861BE3
:10442000809319010895109219010895809118013F
:10443000681720F4861B80931801089510921801C4
:10444000089580911701681720F4861B8093170147
:10445000089510921701089580911601681720F4AD
:10446000861B80931601089510921601089580917D
:104470001501681720F4861B80931501089510928A
:10448000150108958732F8F48E3108F080C08E301F
:1044900009F460C048F4873009F442C08B3009F455
:1044A0008CC0863051F127C0863109F486C020F4D3
:1044B000803109F459C01FC0893109F47EC08B31A5
:1044C00009F43EC018C0883309F477C050F489322B
:1044D00009F46BC0853309F468C0873209F465C0FC
:1044E0000AC0833409F461C020F48A3308F04DC057
:1044F00002C0883461F080E0089580910A03817FD2
:104500008E7F80930A0381E08093160308950E94B2
:104510008B170E948A0C0E94BE030E941A1F4DC076
:1045200090910A03892F8095817080FB90F9909378
:104530000A03811142C0997F977F90930A033DC07F
:1045400090910A0391FB882780F921E0822780FB64
:1045500091F913C090910A0392FB882780F921E01A
:10456000822780FB92F909C090910A0393FB882768
:1045700080F921E0822780FB93F990930A03882336
:10458000E1F0916090930A03089527EC01C023EEB7
:10459000280F61E070E080E090E004C0660F771FB4
:1045A000881F991F2A95D2F704C061E070E080E06F
:1045B00090E00E94851B0E948B1781E0089580E0A7
:1045C000089580E008958E518A3030F4E82FF0E0AD
:1045D000E554FE4F8081089580E00895CF93C82F61
:1045E00080911603813069F018F08230B1F180C0FB
:1045F000E0911301F09114018081823209F07AC0B8
:1046000007C0E0911301F09114018081823249F4D6
:104610008C2F0E94DF2281111DC08C2F0E9442220C
:104620001AC08C2F0E94E122811114C0C43179F08C
:1046300048F4CB3079F0C03109F060C082E080935B
:10464000160308C0C93219F0C83321F057C01092C0
:10465000160354C081E0817053C0C93289F118F546
:10466000C43171F1B0F4C73009F046C08EE18093D7
:104670001A0182E3809319018AE08093180184E192
:104680008093170188E08093160188E280931501DA
:1046900033C082EE8C0F863078F58C2F0E94E32297
:1046A0008093150329C0CE34E9F020F4CB3421F5F2
:1046B0006AE013C0C13579F0C235F1F461E00DC094
:1046C00080911503882319F01092150315C081E01D
:1046D0008093160315C061E006C0809115030E9407
:1046E0007C210AC06AE0809115030E94F22104C077
:1046F0001092160380E004C081E002C080E0ABCFDE
:10470000CF9108950E94101E811102C00E94EC1DDD
:104710000E94311E8093400480FF02C0869501C034
:1047200080E00C948B0320914004322F3695832F28
:1047300090E0039744F491E0930F990F822F8170DA
:10474000892B8093400480914004816080934004D1
:104750000E94351E8091400486950C948B038091B5
:104760004004982F969591F09158990F8170892B5C
:10477000809340048E7F91E009F490E080914004A2
:1047800090FB80F9809340040E94351E8091400484
:1047900086950C948B0380914004982F909590FB04
:1047A00080F9809340040E94351E8091400480FF70
:1047B00002C0869501C080E00C948B0330914004C8
:1047C000232F26952F5F2F77822F90E0317004974B
:1047D0002CF4220F232B2093400402C0309340047A
:1047E000809140048E7F91E009F490E08091400434
:1047F00090FB80F9809340040E94351E8091400414
:1048000086950C948B0320914004922F96959827BF
:10481000990F822F8170892B809340048E7F91E0C5
:1048200009F490E08091400490FB80F9809340046B
:104830000E94351E8091400486950C948B03881F3E
:104840008827881F089591E0883F08F490E0892F19
:104850000895982F907F903B99F038F4903981F02B
:10486000903A71F09038C9F40BC0903DA1F018F463
:10487000903C89F012C0903E19F0903F19F00DC0A5
:1048800083E00895EFE0E80FEF3038F4F0E0EB5309
:10489000FE4F8081089582E0089580E008950F938F
:1048A0002F774F776F70606BDC01ED91FC91022FD9
:1048B000242F462F63E070E009950F9108950F9320
:1048C0002F774F776F706069DC01ED91FC91022FBB
:1048D000242F462F63E070E009950F9108950F9300
:1048E0002F774F776F706068DC01ED91FC91022F9C
:1048F000242F462F63E070E009950F9108950F93E0
:10490000DC01ED91FC9109950F9108956F927F92D2
:104910008F929F92AF92BF92CF92DF92EF92FF92CF
:104920000F93CF93DF9300D01F92CDB7DEB74C012A
:104930005B013A01E12CF12CEA14FB0400F5198229
:104940001A821B826501CE18DF0884E0C816D104E4
:1049500018F053E0C52ED12CB3016E0D7F1DA601BA
:10496000CE0101960E94D7360B812A814981B6017A
:10497000C4010E947F2483E0E80EF11CDDCF0F907C
:104980000F900F90DF91CF910F91FF90EF90DF90FC
:10499000CF90BF90AF909F908F907F906F90089531
:1049A000FC01738362830895FC01738F628F089505
:1049B000FC01758F648F0895CF93DF93EC011DA2E6
:1049C0001FA21EA2BC01685D7F4F40EC88519F4F23
:1049D0000E940A271B821A821D821C821F821E824D
:1049E000198618861B861A861D861C861F861E86BB
:1049F000198A188A1B8A1A8A1D8A1C8A1F8A1E8A8B
:104A0000198E188E1B8E1A8E1D8E1C8E1F8E1E8E5A
:104A100019A218A2DF91CF910895EF92FF920F9300
:104A20001F93CF93DF93F62EE42EEA018C010851F9
:104A30001F4F8C2F8E198F1528F46991C8010E9481
:104A40001127F7CFDF91CF911F910F91FF90EF903A
:104A50000895FC01718360830895FC0171A360A334
:104A60000895AF92BF92CF92DF92EF92FF920F9391
:104A70001F93CF93DF9300D01F92CDB7DEB77C0199
:104A80006B01142FB22EA02EDC0195968C91959778
:104A90008430F1F45A96ED91FC915B97309709F4CC
:104AA000C0C0CB01019763E070E00E948235DB015A
:104AB000AA0FBB1FA60FB71F49832A830B834C2D58
:104AC0004A1B9E012F5F3F4FBD01C7010995B6C02C
:104AD0006230710509F452C06330710529F061300C
:104AE000710509F099C080C0842F807F803AF9F069
:104AF00058F48038B1F0803909F093C0D70114968A
:104B0000ED91FC9115972AC0803EB9F0803FD9F015
:104B1000803B09F086C0D7011296ED91FC91139766
:104B20001DC0D7011696ED91FC91179717C0D701BC
:104B30001896ED91FC91199711C0D7011A96ED9135
:104B4000FC911B970BC0423F09F06BC0D7011C962C
:104B5000ED91FC911D97309731F463C0309709F4C3
:104B600060C0123F21F42A2D4B2D62EF04C02A2D84
:104B70004B2D612F6F70C701099560C0842F807F16
:104B8000803D59F0803F79F0803C09F04AC0D70160
:104B90001E96ED91FC911F9718C0D7015096ED918C
:104BA000FC91519712C0433F31F4D7015296ED91D9
:104BB000FC91539707C0413FA1F5D7015496ED9161
:104BC000FC915597309739F42CC0309751F1812FD3
:104BD0008D7F813F19F44B2D612F03C04B2D612F29
:104BE0006F70C70109952AC0842F0E94232488234F
:104BF00031F0D7015696ED91FC91579707C0163FBB
:104C000081F4D7015896ED91FC915997309749F06E
:104C1000612FC701099512C06430710510F0C12CD5
:104C2000D12CD7015C96ED91FC915D97309731F0D6
:104C30000A2D2B2D412FB601C7010995D7015E968C
:104C4000ED91FC915F97309731F00A2D2B2D412F7C
:104C5000B601C70109950F900F900F90DF91CF918A
:104C60001F910F91FF90EF90DF90CF90BF90AF908A
:104C70000895EF92FF920F931F93CF93DF93EC0170
:104C8000162F862F0E942324882369F0FDA081E03F
:104C90008DA300E020E0412F61E070E0CE010E9492
:104CA0003125FDA27CC0812F0E941F244DA18823A5
:104CB00009F440C0443029F01AA321E030E03FA3BA
:104CC0002EA3812F0E942924813031F070F0823090
:104CD00051F0833041F02AC08DA300E020E0412F45
:104CE00061E070E01EC08DA35AC0103FB1F0173FC5
:104CF000E9F42EA13FA1C90163E070E00E94823572
:104D00008C0F9D1FFC0112A3B9016F5F7F4F7FA322
:104D10006EA30CA12BA14AA104C084E08DA31AA309
:104D20002CC0CE010E9431251DA239C01DA21FA298
:104D30001EA235C0442399F12EA13FA1C90163E011
:104D400070E00E9482357C01FE01E80FF91F12A37A
:104D5000B9016F5F7F4F7FA36EA38130910591F002
:104D600082E0E816F104D9F40CA12BA14AA1CE01EE
:104D70000E9431258DA1843091F081E090E09FA3C5
:104D80008EA30DC0423059F400E02BA14AA1CE0100
:104D90000E9431258DA1843011F0FFA2EEA2DF9197
:104DA000CF911F910F91FF90EF900895CF92DF92D6
:104DB000EF92FF920F931F93CF93DF93EC01E8A143
:104DC000F9A1309709F009958E0108511F4FC801CC
:104DD0000E944327E12CF12CC82ED12CEC14FD04A9
:104DE00080F460E0C8010E945727682FCE010E941E
:104DF000392661E0C8010E9468278FEFE81AF80A97
:104E0000EDCFDF91CF911F910F91FF90EF90DF9049
:104E1000CF900895FC0142837483638311821082D2
:104E200008950F931F93CF93DF93EC01062F0E94F9
:104E30008927182F298130E0C90101966A8170E025
:104E40000E949635488150E08417950729F4812FF8
:104E50000E948C2780E012C0EB81FC81E20FF31FDF
:104E600000832981822F90E001966A8170E00E9480
:104E700096358983812F0E948C2781E0DF91CF9125
:104E80001F910F910895CF93DF93EC010E94892722
:104E900029819881291710F0C22F02C0CA81C20F40
:104EA000C91B0E948C278C2FDF91CF910895FC01A4
:104EB0002081862F90E0820F911D628170E00E9418
:104EC00096350380F481E02DE80FF91F8081089565
:104ED0000F931F93CF93DF931F92CDB7DEB78C0153
:104EE00069830E948927482FF80180816981262FD4
:104EF00030E0280F311D628170E0C9010E949635B3
:104F00008083842F0F90DF91CF911F910F910C948C
:104F10008C278FB7F89408958FBF089567E070E0ED
:104F20000E94823523E0660F771F2A95E1F70097EC
:104F300021F00196860F971F0895CB010895482F01
:104F400047709C0153E0369527955A95E1F7442325
:104F500051F057E0529FC001539F900D11240197CB
:104F6000840F911D089547E0429FC001439F900D1B
:104F7000112408956F927F929F92AF92BF92CF9229
:104F8000DF92EF92FF920F931F93CF93DF937C01F9
:104F90003B015A01CA0167E070E00E94823583013B
:104FA000F70120E030E02617370731F11082C80101
:104FB000A0E0B0E0EC019990CE011196492D407827
:104FC000C42ED12C0A2E02C0D594C7940A94E2F7BD
:104FD00040814C294083AF014A0F5B1FD92DDF77F9
:104FE0009D2EEA019882A730B10521F72F5F3F4F30
:104FF000095F1F4F3896D7CFC50167E070E00E9468
:105000008235A90163E0440F551F6A95E1F70097C7
:1050100051F1F701E40FF51F108267E0629FD001A4
:10502000639FB00D1124A60DB71D20E030E01D9147
:105030002F5F3F4F612F607870E0022E02C07595A0
:1050400067950A94E2F77081762B7083EF01C20FA7
:10505000D31F1F7718832817390749F7C90101960D
:10506000840F951F01C0CA01DF91CF911F910F914D
:10507000FF90EF90DF90CF90BF90AF909F907F9088
:105080006F9008958F929F92BF92CF92DF92EF928E
:10509000FF920F931F93CF93DF936A01B3E0D694EF
:1050A000C794BA95E1F74230510508F466C04C0147
:1050B000DB0120E030E02C153D0529F18401E1E021
:1050C000F0E07D01EE0EFF1EE701B880DB2DDF77FB
:1050D000BD2EE801B882EC900E2E01C0EE0C0A94B1
:1050E000EAF7DE2DD078ED2EEB28E801E9928E016B
:1050F0003196E830F10529F72F5F3F4FD7E08D0E4D
:10510000911C1896D8CF477089F1F901A3E0EE0FF2
:10511000FF1FAA95E1F757E0529F7001539FF00CD3
:105120001124DC01AE0DBF1D20E030E050E0CA01CB
:105130000197E60FF71F2817390798F4BF01620F90
:10514000731FEB0119811F771C932F5F3F4F608105
:10515000022E01C0660F0A94EAF76078612B6D9306
:10516000EACFC7010197840F951F09C047E0429F0E
:10517000C001439F900D112402C080E090E0DF91B8
:10518000CF911F910F91FF90EF90DF90CF90BF9044
:105190009F908F900895FC01CB012091450424300D
:1051A000B1F421812F702093E90040E050E064E0E9
:1051B00070E00E94E42C81110DC08091E80085FD13
:1051C00008C08091E8008E778093E80002C082E0FA
:1051D000089580E00895209145042430A1F4FC0155
:1051E00081818F708093E9002091F3008091F2001B
:1051F00090E0922B892B49F08091E8008E77809384
:10520000E8000C948F2E82E0089580E008952091AC
:105210004504243051F4FC0121812F702093E900D2
:105220002091E80020FD0C94EB280895FC01CB01AF
:1052300020914504243011F080E0089526812F70DC
:105240002093E9002091E80022FFF6CF2091E800AA
:1052500025FFF2CF40E050E064E070E00E942D2D89
:105260008091E80085FD05C08091E8008B778093F0
:10527000E80081E0089580913F0308950895CF9359
:10528000DF93EC010E94DC246AE979E2CE010E94FE
:10529000292562E579E2CE010E942D257894DF91DF
:1052A000CF9108950F931F93CF93DF93CDB7DEB7C0
:1052B00027970FB6F894DEBF0FBECDBF8C01BE019D
:1052C0006F5F7F4F8BE191E00E9416298823B1F038
:1052D0008A810E9429249A819D839B819E839C813F
:1052E0009F8381111FC089818430C9F08730B9F054
:1052F0008630B9F0853019F781E014C08BE191E078
:105300000E9407290E94973127960FB6F894DEBFB6
:105310000FBECDBFDF91CF911F910F91089583E014
:1053200001C082E0AE014B5F5F4F682FC8010E9451
:105330000D25C5CFEF92FF920F93CF93DF9300D04F
:1053400000D000D0CDB7DEB77B014A832B830C831E
:10535000842F2E834D830E9429242E814D8181111B
:105360001BC082E0E816F10471F083E0E816F10456
:1053700021F0EA94EF2821F50BC0073F11F487E0F4
:1053800005C084E003C0273FE1F786E0898307C0BA
:10539000473FB9F785E0FACF42954F704983BE0188
:1053A0006F5F7F4F8BE191E00E94CB288BE191E012
:1053B0000E94EB288BE191E00E9407290E9497311F
:1053C00026960FB6F894DEBF0FBECDBFDF91CF910A
:1053D0000F91FF90EF900895CF93DF9300D01F922D
:1053E000CDB7DEB720914504243019F523E0298399
:1053F0009B838A832093E9008FEF9091E80081508E
:1054000095FD06C095ED9A95F1F700008111F5CF55
:105410008091E80085FF0DC040E050E063E070E05F
:10542000CE0101960E94E42C8091E8008E77809353
:10543000E8000F900F900F90DF91CF910895CF93D8
:10544000DF9300D01F92CDB7DEB720914504243002
:1054500021F522E029839B838A8383E08093E900FE
:105460008FEF9091E800815095FD06C095ED9A95DB
:10547000F1F700008111F5CF8091E80085FF0DC0A4
:1054800040E050E063E070E0CE0101960E94E42C21
:105490008091E8008E778093E8000F900F900F9036
:1054A000DF91CF910895209145042430F1F422E05A
:1054B0002093E9002FEF3091E800215035FD06C020
:1054C00035ED3A95F1F700002111F5CF2091E80074
:1054D00025FF0BC040E050E065E070E00E94E42C46
:1054E0008091E8008E778093E8000895CF93DF9352
:1054F000EC0180914504843039F581E08093E90026
:105500008FEF9091E800815095FD06C095ED9A953A
:10551000F1F700008111F5CF8091E80085FF14C0FC
:1055200040E050E068E070E0CE010E94E42C809101
:10553000E8008E778093E80088E0FE01A7E3B3E0FF
:1055400001900D928A95E1F7DF91CF9108950F9325
:105550001F936330710509F04DC0842F807F803820
:1055600051F1803909F046C0622F6F7770E080E01A
:1055700090E00E94B83220E030E040E451E40E9424
:105580001D329B01AC0160E070E080E090E40E947D
:105590002B340F7710E023E0159507952A95E1F756
:1055A0002DEC3CEC42E851E40E94C833A8011F9165
:1055B0000F910C949010622F6F7770E080E090E074
:1055C0000E94B83220E030E040E451E40E941D32F5
:1055D0009B01AC0160E070E080E090E40E942B341D
:1055E0002DEC3CEC42E851E40E94C8331F910F912E
:1055F0000C94BD0C4C3F21F41F910F910C948A0C1C
:105600001F910F910895CF92DF92EF92FF920F9327
:105610001F93CF93DF93EB01D42EC22E24978901E1
:10562000802F8C198D15E0F4F801D8018D918D0132
:10563000DE01A95EBC4F14968C938081873F71F484
:10564000CE010E949F270E94B0357C01AE016BE124
:1056500073E00E944228B7010E940A092196E0CF18
:10566000DF91CF911F910F91FF90EF90DF90CF903E
:10567000089580914404811109C00E94BF2E0E94A8
:105680001C2F8091E20084608093E20008951092C4
:1056900044040895089508950C94861E42E061EC38
:1056A00081E00E94392E42E061EC82E00E94392EB6
:1056B00042E061EC83E00E94392E42E361E884E03D
:1056C0000E94392E42E360E885E00C94392E8091E7
:1056D0004704833009F453C030F4813071F08230D4
:1056E00009F48CC008958A3009F478C08B3009F42D
:1056F0005EC0893009F09AC020C080914604813A8A
:1057000009F094C08091E800877F8093E800809141
:105710004A0490914B04892B21F060E080E090E0F6
:1057200003C068E087E393E070E00E94762D8091EB
:10573000E8008B778093E8000895809146048132D9
:1057400009F074C080914A0490914B04892B09F0B0
:105750006DC08091E800877F8093E8008091E80029
:1057600082FD05C0809145048111F8CF5FC0809112
:10577000F10080933F038091E8008B7753C08091C4
:105780004604813A09F052C080914A0490914B043A
:10579000892B09F04BC08091E800877F8093E80057
:1057A0008091E80080FFFCCF8091370136C0809166
:1057B00046048132D9F580914A0490914B04892B9B
:1057C000A9F58091E800877F8093E8000E946E2E03
:1057D00080914804809337010C948B178091460484
:1057E000813221F58091E800877F8093E8000E9454
:1057F0006E2E809149048093400308958091460461
:10580000813AA1F48091E800877F8093E80080913D
:10581000E80080FFFCCF809140038093F1008091ED
:10582000E8008E778093E8000C946E2E089581E452
:1058300093E00E94DC246AE979E281E493E00E942B
:10584000292562E579E281E493E00E942D2584B761
:10585000877F84BF88E10FB6F89480936000109230
:1058600060000FBE80E880936100109261000E948A
:10587000DB120E94BF2E0E941C2F8091E2008460E8
:105880008093E200789467EA7AE281E493E00E94F0
:10589000D8246EE379E281E493E00E94D02463E0AF
:1058A0007BE281E493E00E94D4240E9497310E941D
:1058B000DD1287E291E00E948712809145048530D5
:1058C00069F40E94431E809143048823B1F30E942F
:1058D000711E882391F30E94CE2CEFCF0E94E51217
:1058E00081E493E00E94D626E8CF292F3327233086
:1058F0003105A9F06CF42130310509F442C02230A1
:10590000310509F043C080EB90E024EC33E042C065
:1059100021323105C9F02232310519F137C09927FA
:105920008130910541F08230910541F0892B71F56C
:10593000E0ECF3E005C0E2E9F3E002C0E8E6F3E002
:10594000849190E09F0126C0633000F5E62FF0E0DF
:10595000EE0FFF1FE352FE4F2081318189E090E07E
:1059600019C0633098F4E62FF0E0DF01AA0FBB1FE7
:10597000A952BE4F2D913C91EC52FE4F808190E098
:1059800009C082E190E024E734E004C080E090E0C8
:1059900020E030E0FA0131832083089580E189BD61
:1059A00082E189BD09B400FEFDCF8091D8008F7DD2
:1059B0008093D8008091E00082608093E000809125
:1059C000E00081FDFCCF0895CF92DF92EF92FF922D
:1059D0000F931F93CF93DF937C018B01EA010E9409
:1059E0008F2E811131C0209731F088819981081B59
:1059F000190BE80EF91EC12CD12C0115110519F156
:105A00008091E80085FD14C08091E8008E77809336
:105A1000E800209741F0888199818C0D9D1D998324
:105A2000888385E011C00E948F2E882331F30CC03B
:105A3000F70181917F018093F10001501109FFEF7F
:105A4000CF1ADF0ADACF80E0DF91CF911F910F915B
:105A5000FF90EF90DF90CF900895CF92DF92EF927A
:105A6000FF920F931F93CF93DF937C018B01EA0189
:105A70000E948F2E811131C0209731F08881998149
:105A8000081B190BE80EF91EC12CD12C01151105AC
:105A900019F18091E80085FD14C08091E8008B77B2
:105AA0008093E800209741F0888199818C0D9D1D9D
:105AB0009983888385E011C00E948F2E882331F35B
:105AC0000CC08091F100F70181937F010150110911
:105AD000FFEFCF1ADF0ADACF80E0DF91CF911F917D
